
Terminal.elf:     file format elf32-avr

Sections:
Idx Name          Size      VMA       LMA       File off  Algn
  0 .data         0000012e  00800100  00000a42  00000ad6  2**0
                  CONTENTS, ALLOC, LOAD, DATA
  1 .text         00000a42  00000000  00000000  00000094  2**1
                  CONTENTS, ALLOC, LOAD, READONLY, CODE
  2 .bss          00000003  0080022e  0080022e  00000c04  2**0
                  ALLOC
  3 .stab         000006cc  00000000  00000000  00000c04  2**2
                  CONTENTS, READONLY, DEBUGGING
  4 .stabstr      00000085  00000000  00000000  000012d0  2**0
                  CONTENTS, READONLY, DEBUGGING
  5 .debug_aranges 00000020  00000000  00000000  00001355  2**0
                  CONTENTS, READONLY, DEBUGGING
  6 .debug_pubnames 0000018d  00000000  00000000  00001375  2**0
                  CONTENTS, READONLY, DEBUGGING
  7 .debug_info   00000aba  00000000  00000000  00001502  2**0
                  CONTENTS, READONLY, DEBUGGING
  8 .debug_abbrev 0000030e  00000000  00000000  00001fbc  2**0
                  CONTENTS, READONLY, DEBUGGING
  9 .debug_line   00000c0a  00000000  00000000  000022ca  2**0
                  CONTENTS, READONLY, DEBUGGING
 10 .debug_frame  00000130  00000000  00000000  00002ed4  2**2
                  CONTENTS, READONLY, DEBUGGING
 11 .debug_str    0000025e  00000000  00000000  00003004  2**0
                  CONTENTS, READONLY, DEBUGGING
 12 .debug_loc    0000086b  00000000  00000000  00003262  2**0
                  CONTENTS, READONLY, DEBUGGING
 13 .debug_pubtypes 0000001e  00000000  00000000  00003acd  2**0
                  CONTENTS, READONLY, DEBUGGING
 14 .debug_ranges 000000c0  00000000  00000000  00003aeb  2**0
                  CONTENTS, READONLY, DEBUGGING

Disassembly of section .text:

00000000 <__vectors>:
   0:	0c 94 34 00 	jmp	0x68	; 0x68 <__ctors_end>
   4:	0c 94 51 00 	jmp	0xa2	; 0xa2 <__bad_interrupt>
   8:	0c 94 51 00 	jmp	0xa2	; 0xa2 <__bad_interrupt>
   c:	0c 94 51 00 	jmp	0xa2	; 0xa2 <__bad_interrupt>
  10:	0c 94 51 00 	jmp	0xa2	; 0xa2 <__bad_interrupt>
  14:	0c 94 51 00 	jmp	0xa2	; 0xa2 <__bad_interrupt>
  18:	0c 94 51 00 	jmp	0xa2	; 0xa2 <__bad_interrupt>
  1c:	0c 94 51 00 	jmp	0xa2	; 0xa2 <__bad_interrupt>
  20:	0c 94 51 00 	jmp	0xa2	; 0xa2 <__bad_interrupt>
  24:	0c 94 51 00 	jmp	0xa2	; 0xa2 <__bad_interrupt>
  28:	0c 94 51 00 	jmp	0xa2	; 0xa2 <__bad_interrupt>
  2c:	0c 94 51 00 	jmp	0xa2	; 0xa2 <__bad_interrupt>
  30:	0c 94 51 00 	jmp	0xa2	; 0xa2 <__bad_interrupt>
  34:	0c 94 51 00 	jmp	0xa2	; 0xa2 <__bad_interrupt>
  38:	0c 94 51 00 	jmp	0xa2	; 0xa2 <__bad_interrupt>
  3c:	0c 94 51 00 	jmp	0xa2	; 0xa2 <__bad_interrupt>
  40:	0c 94 51 00 	jmp	0xa2	; 0xa2 <__bad_interrupt>
  44:	0c 94 51 00 	jmp	0xa2	; 0xa2 <__bad_interrupt>
  48:	0c 94 51 00 	jmp	0xa2	; 0xa2 <__bad_interrupt>
  4c:	0c 94 51 00 	jmp	0xa2	; 0xa2 <__bad_interrupt>
  50:	0c 94 51 00 	jmp	0xa2	; 0xa2 <__bad_interrupt>
  54:	0c 94 51 00 	jmp	0xa2	; 0xa2 <__bad_interrupt>
  58:	0c 94 51 00 	jmp	0xa2	; 0xa2 <__bad_interrupt>
  5c:	0c 94 51 00 	jmp	0xa2	; 0xa2 <__bad_interrupt>
  60:	0c 94 51 00 	jmp	0xa2	; 0xa2 <__bad_interrupt>
  64:	0c 94 51 00 	jmp	0xa2	; 0xa2 <__bad_interrupt>

00000068 <__ctors_end>:
  68:	11 24       	eor	r1, r1
  6a:	1f be       	out	0x3f, r1	; 63
  6c:	cf ef       	ldi	r28, 0xFF	; 255
  6e:	d8 e0       	ldi	r29, 0x08	; 8
  70:	de bf       	out	0x3e, r29	; 62
  72:	cd bf       	out	0x3d, r28	; 61

00000074 <__do_copy_data>:
  74:	12 e0       	ldi	r17, 0x02	; 2
  76:	a0 e0       	ldi	r26, 0x00	; 0
  78:	b1 e0       	ldi	r27, 0x01	; 1
  7a:	e2 e4       	ldi	r30, 0x42	; 66
  7c:	fa e0       	ldi	r31, 0x0A	; 10
  7e:	02 c0       	rjmp	.+4      	; 0x84 <__do_copy_data+0x10>
  80:	05 90       	lpm	r0, Z+
  82:	0d 92       	st	X+, r0
  84:	ae 32       	cpi	r26, 0x2E	; 46
  86:	b1 07       	cpc	r27, r17
  88:	d9 f7       	brne	.-10     	; 0x80 <__do_copy_data+0xc>

0000008a <__do_clear_bss>:
  8a:	12 e0       	ldi	r17, 0x02	; 2
  8c:	ae e2       	ldi	r26, 0x2E	; 46
  8e:	b2 e0       	ldi	r27, 0x02	; 2
  90:	01 c0       	rjmp	.+2      	; 0x94 <.do_clear_bss_start>

00000092 <.do_clear_bss_loop>:
  92:	1d 92       	st	X+, r1

00000094 <.do_clear_bss_start>:
  94:	a1 33       	cpi	r26, 0x31	; 49
  96:	b1 07       	cpc	r27, r17
  98:	e1 f7       	brne	.-8      	; 0x92 <.do_clear_bss_loop>
  9a:	0e 94 fe 04 	call	0x9fc	; 0x9fc <main>
  9e:	0c 94 1f 05 	jmp	0xa3e	; 0xa3e <_exit>

000000a2 <__bad_interrupt>:
  a2:	0c 94 00 00 	jmp	0	; 0x0 <__vectors>

000000a6 <CheckSensorAsync>:
	}
}

/*uint16_t*/ uint8_t CheckSensor()
{
	ADCSRA |= (1 << ADSC);
  a6:	80 91 7a 00 	lds	r24, 0x007A
  aa:	80 64       	ori	r24, 0x40	; 64
  ac:	80 93 7a 00 	sts	0x007A, r24
	//uint8_t temp;
	
	//Wait conversion
	
	//while(ADCSRA & (1<<ADSC));
	while(!(ADCSRA & (1 << ADIF)));
  b0:	80 91 7a 00 	lds	r24, 0x007A
  b4:	84 ff       	sbrs	r24, 4
  b6:	fc cf       	rjmp	.-8      	; 0xb0 <CheckSensorAsync+0xa>
			
	uint8_t _zero = 0 + 48;
	uint8_t _one = 1 + 48;
	
	
	if(ADCH >= 2)
  b8:	80 91 79 00 	lds	r24, 0x0079
  bc:	82 30       	cpi	r24, 0x02	; 2
  be:	70 f0       	brcs	.+28     	; 0xdc <CheckSensorAsync+0x36>
		return _zero;
  c0:	90 e3       	ldi	r25, 0x30	; 48
	
	uint8_t ADCData = CheckSensor();
	
	//USART_transmit(ADCData);
	
	if(ADCDataPrevious != ADCData)
  c2:	80 91 2c 02 	lds	r24, 0x022C
  c6:	89 17       	cp	r24, r25
  c8:	41 f0       	breq	.+16     	; 0xda <CheckSensorAsync+0x34>

//This function work
void USART_transmit(uint8_t transmitedData)
{

    while (!(UCSR0A & (1 << UDRE0)));
  ca:	80 91 c0 00 	lds	r24, 0x00C0
  ce:	85 ff       	sbrs	r24, 5
  d0:	fc cf       	rjmp	.-8      	; 0xca <CheckSensorAsync+0x24>
    UDR0 = transmitedData;
  d2:	90 93 c6 00 	sts	0x00C6, r25
		//USART_transmit_string("/nADCData = ");
		USART_transmit(ADCData);
		//USART_transmit_string("/nADCDataPrevious = ");
		//USART_transmit(ADCDataPrevious);
		
		ADCDataPrevious = ADCData;
  d6:	90 93 2c 02 	sts	0x022C, r25
  da:	08 95       	ret
	
	
	if(ADCH >= 2)
		return _zero;
	else
		return _one;
  dc:	91 e3       	ldi	r25, 0x31	; 49
  de:	f1 cf       	rjmp	.-30     	; 0xc2 <CheckSensorAsync+0x1c>

000000e0 <GetChannels>:
	#endif
		
}

void GetChannels(char* channelsStr, uint8_t* channels)
{
  e0:	ff 92       	push	r15
  e2:	0f 93       	push	r16
  e4:	1f 93       	push	r17
	uint8_t i = 0;
	uint8_t j = 0;
	uint8_t l = 0;
	
	while(channelsStr[i] != 'A')
  e6:	dc 01       	movw	r26, r24
  e8:	4c 91       	ld	r20, X
  ea:	41 34       	cpi	r20, 0x41	; 65
  ec:	09 f4       	brne	.+2      	; 0xf0 <GetChannels+0x10>
  ee:	5b c0       	rjmp	.+182    	; 0x1a6 <GetChannels+0xc6>
  f0:	fc 01       	movw	r30, r24
  f2:	20 e0       	ldi	r18, 0x00	; 0
  f4:	30 e0       	ldi	r19, 0x00	; 0
  f6:	10 e0       	ldi	r17, 0x00	; 0
  f8:	00 e0       	ldi	r16, 0x00	; 0
  fa:	15 c0       	rjmp	.+42     	; 0x126 <GetChannels+0x46>
			channels[j] = channelsStr[i + 1] - 48;
			i++;
			j++;
		}
		
		if(channelsStr[i] == '-')
  fc:	a0 2f       	mov	r26, r16
  fe:	b0 e0       	ldi	r27, 0x00	; 0
 100:	fc 01       	movw	r30, r24
 102:	ea 0f       	add	r30, r26
 104:	fb 1f       	adc	r31, r27
 106:	20 81       	ld	r18, Z
 108:	2d 32       	cpi	r18, 0x2D	; 45
 10a:	61 f1       	breq	.+88     	; 0x164 <GetChannels+0x84>
				j++;
			}
			i++;
		}
		
		if(channelsStr[i] == 'A')
 10c:	21 34       	cpi	r18, 0x41	; 65
 10e:	09 f4       	brne	.+2      	; 0x112 <GetChannels+0x32>
 110:	4a c0       	rjmp	.+148    	; 0x1a6 <GetChannels+0xc6>
			break;
		
		i++;
 112:	0f 5f       	subi	r16, 0xFF	; 255
{
	uint8_t i = 0;
	uint8_t j = 0;
	uint8_t l = 0;
	
	while(channelsStr[i] != 'A')
 114:	20 2f       	mov	r18, r16
 116:	30 e0       	ldi	r19, 0x00	; 0
 118:	fc 01       	movw	r30, r24
 11a:	e2 0f       	add	r30, r18
 11c:	f3 1f       	adc	r31, r19
 11e:	40 81       	ld	r20, Z
 120:	41 34       	cpi	r20, 0x41	; 65
 122:	09 f4       	brne	.+2      	; 0x126 <GetChannels+0x46>
 124:	40 c0       	rjmp	.+128    	; 0x1a6 <GetChannels+0xc6>
	{
		if(channelsStr[i] > 47 && channelsStr[i] < 58)
 126:	40 53       	subi	r20, 0x30	; 48
 128:	4a 30       	cpi	r20, 0x0A	; 10
 12a:	28 f4       	brcc	.+10     	; 0x136 <GetChannels+0x56>
		{
			channels[j] = channelsStr[i] - 48;
 12c:	db 01       	movw	r26, r22
 12e:	a1 0f       	add	r26, r17
 130:	b1 1d       	adc	r27, r1
 132:	4c 93       	st	X, r20
			j++;
 134:	1f 5f       	subi	r17, 0xFF	; 255
		}
		
		if(channelsStr[i] == '&')
 136:	40 81       	ld	r20, Z
 138:	46 32       	cpi	r20, 0x26	; 38
 13a:	01 f7       	brne	.-64     	; 0xfc <GetChannels+0x1c>
		{
			channels[j] = channelsStr[i + 1] - 48;
 13c:	fb 01       	movw	r30, r22
 13e:	e1 0f       	add	r30, r17
 140:	f1 1d       	adc	r31, r1
 142:	28 0f       	add	r18, r24
 144:	39 1f       	adc	r19, r25
 146:	d9 01       	movw	r26, r18
 148:	11 96       	adiw	r26, 0x01	; 1
 14a:	2c 91       	ld	r18, X
 14c:	20 53       	subi	r18, 0x30	; 48
 14e:	20 83       	st	Z, r18
			i++;
 150:	0f 5f       	subi	r16, 0xFF	; 255
			j++;
 152:	1f 5f       	subi	r17, 0xFF	; 255
		}
		
		if(channelsStr[i] == '-')
 154:	a0 2f       	mov	r26, r16
 156:	b0 e0       	ldi	r27, 0x00	; 0
 158:	fc 01       	movw	r30, r24
 15a:	ea 0f       	add	r30, r26
 15c:	fb 1f       	adc	r31, r27
 15e:	20 81       	ld	r18, Z
 160:	2d 32       	cpi	r18, 0x2D	; 45
 162:	a1 f6       	brne	.-88     	; 0x10c <GetChannels+0x2c>
		{
			for(l = (channelsStr[i - 1] - 48) + 1; l <= (channelsStr[i + 1] - 48); l++)
 164:	31 97       	sbiw	r30, 0x01	; 1
 166:	f0 80       	ld	r15, Z
 168:	e1 ed       	ldi	r30, 0xD1	; 209
 16a:	fe 0e       	add	r15, r30
 16c:	11 96       	adiw	r26, 0x01	; 1
 16e:	a8 0f       	add	r26, r24
 170:	b9 1f       	adc	r27, r25
 172:	06 c0       	rjmp	.+12     	; 0x180 <GetChannels+0xa0>
			{
				channels[j] = l;
 174:	fb 01       	movw	r30, r22
 176:	e1 0f       	add	r30, r17
 178:	f1 1d       	adc	r31, r1
 17a:	f0 82       	st	Z, r15
				j++;
 17c:	1f 5f       	subi	r17, 0xFF	; 255
			j++;
		}
		
		if(channelsStr[i] == '-')
		{
			for(l = (channelsStr[i - 1] - 48) + 1; l <= (channelsStr[i + 1] - 48); l++)
 17e:	f3 94       	inc	r15
 180:	2c 91       	ld	r18, X
 182:	33 27       	eor	r19, r19
 184:	27 fd       	sbrc	r18, 7
 186:	30 95       	com	r19
 188:	2f 52       	subi	r18, 0x2F	; 47
 18a:	30 40       	sbci	r19, 0x00	; 0
 18c:	4f 2d       	mov	r20, r15
 18e:	50 e0       	ldi	r21, 0x00	; 0
 190:	42 17       	cp	r20, r18
 192:	53 07       	cpc	r21, r19
 194:	7c f3       	brlt	.-34     	; 0x174 <GetChannels+0x94>
			{
				channels[j] = l;
				j++;
			}
			i++;
 196:	0f 5f       	subi	r16, 0xFF	; 255
 198:	fc 01       	movw	r30, r24
 19a:	e0 0f       	add	r30, r16
 19c:	f1 1d       	adc	r31, r1
 19e:	20 81       	ld	r18, Z
		}
		
		if(channelsStr[i] == 'A')
 1a0:	21 34       	cpi	r18, 0x41	; 65
 1a2:	09 f0       	breq	.+2      	; 0x1a6 <GetChannels+0xc6>
 1a4:	b6 cf       	rjmp	.-148    	; 0x112 <GetChannels+0x32>
			break;
		
		i++;
	}
}
 1a6:	1f 91       	pop	r17
 1a8:	0f 91       	pop	r16
 1aa:	ff 90       	pop	r15
 1ac:	08 95       	ret

000001ae <USART_init>:


void USART_init( uint8_t UBBR_val )
{

    UBRR0H = (uint8_t) (UBBR_val >> 8);
 1ae:	10 92 c5 00 	sts	0x00C5, r1
    UBRR0L = (uint8_t) UBBR_val;
 1b2:	80 93 c4 00 	sts	0x00C4, r24
    UCSR0B = (1 << RXEN0) | (1 << TXEN0);
 1b6:	88 e1       	ldi	r24, 0x18	; 24
 1b8:	80 93 c1 00 	sts	0x00C1, r24
    UCSR0C = (1 << USBS0) | (3 << UCSZ00);
 1bc:	8e e0       	ldi	r24, 0x0E	; 14
 1be:	80 93 c2 00 	sts	0x00C2, r24
}
 1c2:	08 95       	ret

000001c4 <ADC_init>:

void ADC_init ()
{
	//ADCSRA = (1 << ADEN) | (0 << ADPS2) | (0 << ADPS1) | (0 << ADPS0)/* | (1 << ADATE)*//* | (1 << ADIE)*/;
	//ADMUX = (1 << REFS0) | (1 << MUX2) | (1 << MUX1);
	ADCSRA |= (1 << ADEN) | (1 << ADPS1) | (1 << ADPS0);
 1c4:	ea e7       	ldi	r30, 0x7A	; 122
 1c6:	f0 e0       	ldi	r31, 0x00	; 0
 1c8:	80 81       	ld	r24, Z
 1ca:	83 68       	ori	r24, 0x83	; 131
 1cc:	80 83       	st	Z, r24
	ADMUX |= (0 << REFS1) | (1 << REFS0) | (0 << MUX0) | (1 << MUX1) | (1 << MUX2) | (0 << MUX3);
 1ce:	ec e7       	ldi	r30, 0x7C	; 124
 1d0:	f0 e0       	ldi	r31, 0x00	; 0
 1d2:	80 81       	ld	r24, Z
 1d4:	86 64       	ori	r24, 0x46	; 70
 1d6:	80 83       	st	Z, r24
}
 1d8:	08 95       	ret

000001da <USART_transmit>:

//This function work
void USART_transmit(uint8_t transmitedData)
{

    while (!(UCSR0A & (1 << UDRE0)));
 1da:	90 91 c0 00 	lds	r25, 0x00C0
 1de:	95 ff       	sbrs	r25, 5
 1e0:	fc cf       	rjmp	.-8      	; 0x1da <USART_transmit>
    UDR0 = transmitedData;
 1e2:	80 93 c6 00 	sts	0x00C6, r24
  
}
 1e6:	08 95       	ret

000001e8 <USART_transmit_string>:

//This function work
void USART_transmit_string(char* transmitedString)
{
	
    while (!(UCSR0A & (1 << UDRE0)));
 1e8:	20 91 c0 00 	lds	r18, 0x00C0
 1ec:	25 ff       	sbrs	r18, 5
 1ee:	fc cf       	rjmp	.-8      	; 0x1e8 <USART_transmit_string>
    for (i = 0; i < strlen(transmitedString); i++)
		USART_transmit((uint8_t)transmitedString[i]);
	*/
	i = 0;
	
	while(transmitedString[i] != '\0' || transmitedString[i] != 0)
 1f0:	fc 01       	movw	r30, r24
 1f2:	30 81       	ld	r19, Z
 1f4:	33 23       	and	r19, r19
 1f6:	71 f0       	breq	.+28     	; 0x214 <USART_transmit_string+0x2c>
 1f8:	40 e0       	ldi	r20, 0x00	; 0
		USART_transmit((uint8_t)transmitedString[i++]);
 1fa:	4f 5f       	subi	r20, 0xFF	; 255

//This function work
void USART_transmit(uint8_t transmitedData)
{

    while (!(UCSR0A & (1 << UDRE0)));
 1fc:	20 91 c0 00 	lds	r18, 0x00C0
 200:	25 ff       	sbrs	r18, 5
 202:	fc cf       	rjmp	.-8      	; 0x1fc <USART_transmit_string+0x14>
    UDR0 = transmitedData;
 204:	30 93 c6 00 	sts	0x00C6, r19
    for (i = 0; i < strlen(transmitedString); i++)
		USART_transmit((uint8_t)transmitedString[i]);
	*/
	i = 0;
	
	while(transmitedString[i] != '\0' || transmitedString[i] != 0)
 208:	fc 01       	movw	r30, r24
 20a:	e4 0f       	add	r30, r20
 20c:	f1 1d       	adc	r31, r1
 20e:	30 81       	ld	r19, Z
 210:	33 23       	and	r19, r19
 212:	99 f7       	brne	.-26     	; 0x1fa <USART_transmit_string+0x12>
 214:	08 95       	ret

00000216 <CommandHandler>:
	}
}

void CommandHandler(uint8_t task, uint8_t* channels, uint8_t argument)
{
	if(task == 1 + 48)
 216:	81 33       	cpi	r24, 0x31	; 49
 218:	69 f0       	breq	.+26     	; 0x234 <CommandHandler+0x1e>
		TurnsHandler(channels, argument);
	
	else if(task == 2 + 48)
 21a:	82 33       	cpi	r24, 0x32	; 50
 21c:	29 f0       	breq	.+10     	; 0x228 <CommandHandler+0x12>
		StateHandler(channels, argument);
	
	else
		USART_transmit_string("Error: wrong command number\n");
 21e:	80 e0       	ldi	r24, 0x00	; 0
 220:	91 e0       	ldi	r25, 0x01	; 1
 222:	0e 94 f4 00 	call	0x1e8	; 0x1e8 <USART_transmit_string>
 226:	08 95       	ret
{
	if(task == 1 + 48)
		TurnsHandler(channels, argument);
	
	else if(task == 2 + 48)
		StateHandler(channels, argument);
 228:	cb 01       	movw	r24, r22
 22a:	64 2f       	mov	r22, r20
 22c:	70 e0       	ldi	r23, 0x00	; 0
 22e:	0e 94 20 01 	call	0x240	; 0x240 <StateHandler>
 232:	08 95       	ret
}

void CommandHandler(uint8_t task, uint8_t* channels, uint8_t argument)
{
	if(task == 1 + 48)
		TurnsHandler(channels, argument);
 234:	cb 01       	movw	r24, r22
 236:	64 2f       	mov	r22, r20
 238:	70 e0       	ldi	r23, 0x00	; 0
 23a:	0e 94 66 02 	call	0x4cc	; 0x4cc <TurnsHandler>
 23e:	08 95       	ret

00000240 <StateHandler>:
	
	USART_transmit(1); //This mean thats all is ok
}

void StateHandler(uint8_t* channels, uint8_t argument)
{
 240:	1f 93       	push	r17
	uint8_t stateOfChannel = 0;
	
	switch(channels[0])
 242:	fc 01       	movw	r30, r24
 244:	80 81       	ld	r24, Z
 246:	83 30       	cpi	r24, 0x03	; 3
 248:	09 f4       	brne	.+2      	; 0x24c <StateHandler+0xc>
 24a:	75 c0       	rjmp	.+234    	; 0x336 <StateHandler+0xf6>
 24c:	84 30       	cpi	r24, 0x04	; 4
 24e:	08 f1       	brcs	.+66     	; 0x292 <StateHandler+0x52>
 250:	85 30       	cpi	r24, 0x05	; 5
 252:	09 f4       	brne	.+2      	; 0x256 <StateHandler+0x16>
 254:	61 c0       	rjmp	.+194    	; 0x318 <StateHandler+0xd8>
 256:	85 30       	cpi	r24, 0x05	; 5
 258:	30 f5       	brcc	.+76     	; 0x2a6 <StateHandler+0x66>
			stateOfChannel = ((PORTD & 16) >> 4) + 48;
			
			break;
			
		case 4:
			stateOfChannel = ((PORTD & 32) >> 5) + 48;
 25a:	8b b1       	in	r24, 0x0b	; 11
 25c:	90 e0       	ldi	r25, 0x00	; 0
 25e:	80 72       	andi	r24, 0x20	; 32
 260:	90 70       	andi	r25, 0x00	; 0
 262:	95 95       	asr	r25
 264:	87 95       	ror	r24
 266:	95 95       	asr	r25
 268:	87 95       	ror	r24
 26a:	95 95       	asr	r25
 26c:	87 95       	ror	r24
 26e:	95 95       	asr	r25
 270:	87 95       	ror	r24
 272:	95 95       	asr	r25
 274:	87 95       	ror	r24
 276:	18 2f       	mov	r17, r24
 278:	10 5d       	subi	r17, 0xD0	; 208
			return;
			break;
	}
	
	#ifdef DEBUG
		USART_transmit_string("stateOfChannel = ");
 27a:	81 e4       	ldi	r24, 0x41	; 65
 27c:	91 e0       	ldi	r25, 0x01	; 1
 27e:	0e 94 f4 00 	call	0x1e8	; 0x1e8 <USART_transmit_string>

//This function work
void USART_transmit(uint8_t transmitedData)
{

    while (!(UCSR0A & (1 << UDRE0)));
 282:	80 91 c0 00 	lds	r24, 0x00C0
 286:	85 ff       	sbrs	r24, 5
 288:	fc cf       	rjmp	.-8      	; 0x282 <StateHandler+0x42>
    UDR0 = transmitedData;
 28a:	10 93 c6 00 	sts	0x00C6, r17
	#ifdef DEBUG
		USART_transmit_string("stateOfChannel = ");
	#endif
	
	USART_transmit(stateOfChannel);
}
 28e:	1f 91       	pop	r17
 290:	08 95       	ret

void StateHandler(uint8_t* channels, uint8_t argument)
{
	uint8_t stateOfChannel = 0;
	
	switch(channels[0])
 292:	81 30       	cpi	r24, 0x01	; 1
 294:	b1 f1       	breq	.+108    	; 0x302 <StateHandler+0xc2>
 296:	82 30       	cpi	r24, 0x02	; 2
 298:	39 f1       	breq	.+78     	; 0x2e8 <StateHandler+0xa8>
			return;
			
			break;
			
		default:
			USART_transmit_string("Error: wrong channel number\n");
 29a:	84 e2       	ldi	r24, 0x24	; 36
 29c:	91 e0       	ldi	r25, 0x01	; 1
 29e:	0e 94 f4 00 	call	0x1e8	; 0x1e8 <USART_transmit_string>
	#ifdef DEBUG
		USART_transmit_string("stateOfChannel = ");
	#endif
	
	USART_transmit(stateOfChannel);
}
 2a2:	1f 91       	pop	r17
 2a4:	08 95       	ret

void StateHandler(uint8_t* channels, uint8_t argument)
{
	uint8_t stateOfChannel = 0;
	
	switch(channels[0])
 2a6:	86 30       	cpi	r24, 0x06	; 6
 2a8:	c1 f7       	brne	.-16     	; 0x29a <StateHandler+0x5a>
	}
}

/*uint16_t*/ uint8_t CheckSensor()
{
	ADCSRA |= (1 << ADSC);
 2aa:	80 91 7a 00 	lds	r24, 0x007A
 2ae:	80 64       	ori	r24, 0x40	; 64
 2b0:	80 93 7a 00 	sts	0x007A, r24
	//uint8_t temp;
	
	//Wait conversion
	
	//while(ADCSRA & (1<<ADSC));
	while(!(ADCSRA & (1 << ADIF)));
 2b4:	80 91 7a 00 	lds	r24, 0x007A
 2b8:	84 ff       	sbrs	r24, 4
 2ba:	fc cf       	rjmp	.-8      	; 0x2b4 <StateHandler+0x74>
			
	uint8_t _zero = 0 + 48;
	uint8_t _one = 1 + 48;
	
	
	if(ADCH >= 2)
 2bc:	80 91 79 00 	lds	r24, 0x0079
 2c0:	82 30       	cpi	r24, 0x02	; 2
 2c2:	08 f4       	brcc	.+2      	; 0x2c6 <StateHandler+0x86>
 2c4:	47 c0       	rjmp	.+142    	; 0x354 <StateHandler+0x114>
		return _zero;
 2c6:	80 e3       	ldi	r24, 0x30	; 48
			
			break;
		
		//ADC
		case 6:
			ADCData = CheckSensor();
 2c8:	80 93 2e 02 	sts	0x022E, r24

			#ifdef DEBUG
				USART_transmit_string("ADC = ");
 2cc:	8d e1       	ldi	r24, 0x1D	; 29
 2ce:	91 e0       	ldi	r25, 0x01	; 1
 2d0:	0e 94 f4 00 	call	0x1e8	; 0x1e8 <USART_transmit_string>
			#endif
			
			USART_transmit(ADCData);
 2d4:	90 91 2e 02 	lds	r25, 0x022E

//This function work
void USART_transmit(uint8_t transmitedData)
{

    while (!(UCSR0A & (1 << UDRE0)));
 2d8:	80 91 c0 00 	lds	r24, 0x00C0
 2dc:	85 ff       	sbrs	r24, 5
 2de:	fc cf       	rjmp	.-8      	; 0x2d8 <StateHandler+0x98>
    UDR0 = transmitedData;
 2e0:	90 93 c6 00 	sts	0x00C6, r25
	#ifdef DEBUG
		USART_transmit_string("stateOfChannel = ");
	#endif
	
	USART_transmit(stateOfChannel);
}
 2e4:	1f 91       	pop	r17
 2e6:	08 95       	ret
			stateOfChannel = ((PORTD & 4) >> 2) + 48;
			
			break;
			
		case 2:
			stateOfChannel = ((PORTD & 8) >> 3) + 48;
 2e8:	8b b1       	in	r24, 0x0b	; 11
 2ea:	90 e0       	ldi	r25, 0x00	; 0
 2ec:	88 70       	andi	r24, 0x08	; 8
 2ee:	90 70       	andi	r25, 0x00	; 0
 2f0:	95 95       	asr	r25
 2f2:	87 95       	ror	r24
 2f4:	95 95       	asr	r25
 2f6:	87 95       	ror	r24
 2f8:	95 95       	asr	r25
 2fa:	87 95       	ror	r24
 2fc:	18 2f       	mov	r17, r24
 2fe:	10 5d       	subi	r17, 0xD0	; 208
			
			break;
 300:	bc cf       	rjmp	.-136    	; 0x27a <StateHandler+0x3a>
	uint8_t stateOfChannel = 0;
	
	switch(channels[0])
	{
		case 1:
			stateOfChannel = ((PORTD & 4) >> 2) + 48;
 302:	8b b1       	in	r24, 0x0b	; 11
 304:	90 e0       	ldi	r25, 0x00	; 0
 306:	84 70       	andi	r24, 0x04	; 4
 308:	90 70       	andi	r25, 0x00	; 0
 30a:	95 95       	asr	r25
 30c:	87 95       	ror	r24
 30e:	95 95       	asr	r25
 310:	87 95       	ror	r24
 312:	18 2f       	mov	r17, r24
 314:	10 5d       	subi	r17, 0xD0	; 208
			
			break;
 316:	b1 cf       	rjmp	.-158    	; 0x27a <StateHandler+0x3a>
			stateOfChannel = ((PORTD & 32) >> 5) + 48;
			
			break;
		
		case 5:
			stateOfChannel = ((PORTD & 64) >> 6) + 48;
 318:	8b b1       	in	r24, 0x0b	; 11
 31a:	90 e0       	ldi	r25, 0x00	; 0
 31c:	80 74       	andi	r24, 0x40	; 64
 31e:	90 70       	andi	r25, 0x00	; 0
 320:	08 2e       	mov	r0, r24
 322:	89 2f       	mov	r24, r25
 324:	00 0c       	add	r0, r0
 326:	88 1f       	adc	r24, r24
 328:	99 0b       	sbc	r25, r25
 32a:	00 0c       	add	r0, r0
 32c:	88 1f       	adc	r24, r24
 32e:	99 1f       	adc	r25, r25
 330:	18 2f       	mov	r17, r24
 332:	10 5d       	subi	r17, 0xD0	; 208
			
			break;
 334:	a2 cf       	rjmp	.-188    	; 0x27a <StateHandler+0x3a>
			stateOfChannel = ((PORTD & 8) >> 3) + 48;
			
			break;
			
		case 3:
			stateOfChannel = ((PORTD & 16) >> 4) + 48;
 336:	8b b1       	in	r24, 0x0b	; 11
 338:	90 e0       	ldi	r25, 0x00	; 0
 33a:	80 71       	andi	r24, 0x10	; 16
 33c:	90 70       	andi	r25, 0x00	; 0
 33e:	95 95       	asr	r25
 340:	87 95       	ror	r24
 342:	95 95       	asr	r25
 344:	87 95       	ror	r24
 346:	95 95       	asr	r25
 348:	87 95       	ror	r24
 34a:	95 95       	asr	r25
 34c:	87 95       	ror	r24
 34e:	18 2f       	mov	r17, r24
 350:	10 5d       	subi	r17, 0xD0	; 208
			
			break;
 352:	93 cf       	rjmp	.-218    	; 0x27a <StateHandler+0x3a>
	
	
	if(ADCH >= 2)
		return _zero;
	else
		return _one;
 354:	81 e3       	ldi	r24, 0x31	; 49
 356:	b8 cf       	rjmp	.-144    	; 0x2c8 <StateHandler+0x88>

00000358 <USART_Receive>:
  
}

//This function work
uint8_t USART_Receive()
{
 358:	cf 93       	push	r28
 35a:	df 93       	push	r29
	UCSR0A &= 0x7F;
 35c:	80 91 c0 00 	lds	r24, 0x00C0
 360:	8f 77       	andi	r24, 0x7F	; 127
 362:	80 93 c0 00 	sts	0x00C0, r24
	
    while(!(UCSR0A & (1 << RXC0)))
 366:	80 91 c0 00 	lds	r24, 0x00C0
 36a:	87 fd       	sbrc	r24, 7
 36c:	08 c0       	rjmp	.+16     	; 0x37e <USART_Receive+0x26>
 36e:	c3 e5       	ldi	r28, 0x53	; 83
 370:	d0 e0       	ldi	r29, 0x00	; 0
	{
		CheckSensorAsync();
 372:	fe 01       	movw	r30, r28
 374:	09 95       	icall
//This function work
uint8_t USART_Receive()
{
	UCSR0A &= 0x7F;
	
    while(!(UCSR0A & (1 << RXC0)))
 376:	80 91 c0 00 	lds	r24, 0x00C0
 37a:	87 ff       	sbrs	r24, 7
 37c:	fa cf       	rjmp	.-12     	; 0x372 <USART_Receive+0x1a>
	{
		CheckSensorAsync();
		//_delay_ms(500);
	}
	
    return UDR0;
 37e:	80 91 c6 00 	lds	r24, 0x00C6
	
}
 382:	df 91       	pop	r29
 384:	cf 91       	pop	r28
 386:	08 95       	ret

00000388 <USART_Receive_String>:

//This function work (Not ideally, but work)
char* USART_Receive_String()
{
 388:	8f 92       	push	r8
 38a:	9f 92       	push	r9
 38c:	af 92       	push	r10
 38e:	bf 92       	push	r11
 390:	cf 92       	push	r12
 392:	df 92       	push	r13
 394:	ef 92       	push	r14
 396:	ff 92       	push	r15
 398:	0f 93       	push	r16
 39a:	1f 93       	push	r17
 39c:	df 93       	push	r29
 39e:	cf 93       	push	r28
 3a0:	cd b7       	in	r28, 0x3d	; 61
 3a2:	de b7       	in	r29, 0x3e	; 62
 3a4:	64 97       	sbiw	r28, 0x14	; 20
 3a6:	0f b6       	in	r0, 0x3f	; 63
 3a8:	f8 94       	cli
 3aa:	de bf       	out	0x3e, r29	; 62
 3ac:	0f be       	out	0x3f, r0	; 63
 3ae:	cd bf       	out	0x3d, r28	; 61
	UCSR0A &= 0x7F;
 3b0:	80 91 c0 00 	lds	r24, 0x00C0
 3b4:	8f 77       	andi	r24, 0x7F	; 127
 3b6:	80 93 c0 00 	sts	0x00C0, r24
 3ba:	4e 01       	movw	r8, r28
 3bc:	08 94       	sec
 3be:	81 1c       	adc	r8, r1
 3c0:	91 1c       	adc	r9, r1
 3c2:	64 01       	movw	r12, r8
 3c4:	ee 24       	eor	r14, r14
 3c6:	ff 24       	eor	r15, r15
//This function work
uint8_t USART_Receive()
{
	UCSR0A &= 0x7F;
	
    while(!(UCSR0A & (1 << RXC0)))
 3c8:	03 e5       	ldi	r16, 0x53	; 83
 3ca:	10 e0       	ldi	r17, 0x00	; 0
}

//This function work (Not ideally, but work)
char* USART_Receive_String()
{
	UCSR0A &= 0x7F;
 3cc:	57 01       	movw	r10, r14
}

//This function work
uint8_t USART_Receive()
{
	UCSR0A &= 0x7F;
 3ce:	80 91 c0 00 	lds	r24, 0x00C0
 3d2:	8f 77       	andi	r24, 0x7F	; 127
 3d4:	80 93 c0 00 	sts	0x00C0, r24
	
    while(!(UCSR0A & (1 << RXC0)))
 3d8:	80 91 c0 00 	lds	r24, 0x00C0
 3dc:	87 fd       	sbrc	r24, 7
 3de:	06 c0       	rjmp	.+12     	; 0x3ec <USART_Receive_String+0x64>
	{
		CheckSensorAsync();
 3e0:	f8 01       	movw	r30, r16
 3e2:	09 95       	icall
//This function work
uint8_t USART_Receive()
{
	UCSR0A &= 0x7F;
	
    while(!(UCSR0A & (1 << RXC0)))
 3e4:	80 91 c0 00 	lds	r24, 0x00C0
 3e8:	87 ff       	sbrs	r24, 7
 3ea:	fa cf       	rjmp	.-12     	; 0x3e0 <USART_Receive_String+0x58>
	{
		CheckSensorAsync();
		//_delay_ms(500);
	}
	
    return UDR0;
 3ec:	80 91 c6 00 	lds	r24, 0x00C6
	
	//receivedString = (char*) malloc(20 * sizeof(char));
	//while(UDR0 != '\0')
	for(i = 0; i < 20; i++)
	{
		receivedString[i] = (char)USART_Receive();
 3f0:	f6 01       	movw	r30, r12
 3f2:	81 93       	st	Z+, r24
 3f4:	6f 01       	movw	r12, r30
 3f6:	08 94       	sec
 3f8:	e1 1c       	adc	r14, r1
 3fa:	f1 1c       	adc	r15, r1
		
		if(receivedString[i] == '\0')
 3fc:	88 23       	and	r24, r24
 3fe:	49 f0       	breq	.+18     	; 0x412 <USART_Receive_String+0x8a>
			break;
		
		if(receivedString[i] < 32 || receivedString[i] > 126)
 400:	80 52       	subi	r24, 0x20	; 32
 402:	8f 35       	cpi	r24, 0x5F	; 95
 404:	30 f4       	brcc	.+12     	; 0x412 <USART_Receive_String+0x8a>
 406:	ae 2c       	mov	r10, r14
	char receivedString[20];
	uint8_t i = 0;
	
	//receivedString = (char*) malloc(20 * sizeof(char));
	//while(UDR0 != '\0')
	for(i = 0; i < 20; i++)
 408:	f4 e1       	ldi	r31, 0x14	; 20
 40a:	ef 16       	cp	r14, r31
 40c:	f1 04       	cpc	r15, r1
 40e:	f1 f6       	brne	.-68     	; 0x3cc <USART_Receive_String+0x44>
 410:	bb 24       	eor	r11, r11
			break;
		
		if(receivedString[i] < 32 || receivedString[i] > 126)
			break;
	}
	receivedString[i] = '\0';
 412:	f4 01       	movw	r30, r8
 414:	ea 0d       	add	r30, r10
 416:	fb 1d       	adc	r31, r11
 418:	10 82       	st	Z, r1

//This function work
void USART_transmit(uint8_t transmitedData)
{

    while (!(UCSR0A & (1 << UDRE0)));
 41a:	80 91 c0 00 	lds	r24, 0x00C0
 41e:	85 ff       	sbrs	r24, 5
 420:	fc cf       	rjmp	.-8      	; 0x41a <USART_Receive_String+0x92>
    UDR0 = transmitedData;
 422:	84 e0       	ldi	r24, 0x04	; 4
 424:	80 93 c6 00 	sts	0x00C6, r24
	USART_transmit_string("After while");
    #endif*/
	
	return receivedString;
	
}
 428:	c4 01       	movw	r24, r8
 42a:	64 96       	adiw	r28, 0x14	; 20
 42c:	0f b6       	in	r0, 0x3f	; 63
 42e:	f8 94       	cli
 430:	de bf       	out	0x3e, r29	; 62
 432:	0f be       	out	0x3f, r0	; 63
 434:	cd bf       	out	0x3d, r28	; 61
 436:	cf 91       	pop	r28
 438:	df 91       	pop	r29
 43a:	1f 91       	pop	r17
 43c:	0f 91       	pop	r16
 43e:	ff 90       	pop	r15
 440:	ef 90       	pop	r14
 442:	df 90       	pop	r13
 444:	cf 90       	pop	r12
 446:	bf 90       	pop	r11
 448:	af 90       	pop	r10
 44a:	9f 90       	pop	r9
 44c:	8f 90       	pop	r8
 44e:	08 95       	ret

00000450 <OpenGate>:
//uint8_t i = 0;

//This function work
void OpenGate(uint8_t gateNumber)
{
	switch(gateNumber)
 450:	83 33       	cpi	r24, 0x33	; 51
 452:	d9 f0       	breq	.+54     	; 0x48a <OpenGate+0x3a>
 454:	84 33       	cpi	r24, 0x34	; 52
 456:	30 f0       	brcs	.+12     	; 0x464 <OpenGate+0x14>
 458:	85 33       	cpi	r24, 0x35	; 53
 45a:	a9 f0       	breq	.+42     	; 0x486 <OpenGate+0x36>
 45c:	85 33       	cpi	r24, 0x35	; 53
 45e:	58 f4       	brcc	.+22     	; 0x476 <OpenGate+0x26>
		case 3+48:
			PORTD |= 0x10;
			break;
		
		case 4+48:
			PORTD |= 0x20;
 460:	5d 9a       	sbi	0x0b, 5	; 11
			break;
 462:	08 95       	ret
//uint8_t i = 0;

//This function work
void OpenGate(uint8_t gateNumber)
{
	switch(gateNumber)
 464:	81 33       	cpi	r24, 0x31	; 49
 466:	69 f0       	breq	.+26     	; 0x482 <OpenGate+0x32>
 468:	82 33       	cpi	r24, 0x32	; 50
 46a:	49 f0       	breq	.+18     	; 0x47e <OpenGate+0x2e>
		case 6+48:
			PORTD |= 0x80;
			break;
		
		default:
			USART_transmit_string("Error: Wrong gate number\n");
 46c:	83 e5       	ldi	r24, 0x53	; 83
 46e:	91 e0       	ldi	r25, 0x01	; 1
 470:	0e 94 f4 00 	call	0x1e8	; 0x1e8 <USART_transmit_string>
 474:	08 95       	ret
//uint8_t i = 0;

//This function work
void OpenGate(uint8_t gateNumber)
{
	switch(gateNumber)
 476:	86 33       	cpi	r24, 0x36	; 54
 478:	c9 f7       	brne	.-14     	; 0x46c <OpenGate+0x1c>
		case 5+48:
			PORTD |= 0x40;
			break;
			
		case 6+48:
			PORTD |= 0x80;
 47a:	5f 9a       	sbi	0x0b, 7	; 11
			break;
 47c:	08 95       	ret
		case 1+48:
			PORTD |= 0x4;
			break;
		
		case 2+48:
			PORTD |= 0x8;
 47e:	5b 9a       	sbi	0x0b, 3	; 11
			break;
 480:	08 95       	ret
void OpenGate(uint8_t gateNumber)
{
	switch(gateNumber)
	{
		case 1+48:
			PORTD |= 0x4;
 482:	5a 9a       	sbi	0x0b, 2	; 11
			break;
 484:	08 95       	ret
		case 4+48:
			PORTD |= 0x20;
			break;
		
		case 5+48:
			PORTD |= 0x40;
 486:	5e 9a       	sbi	0x0b, 6	; 11
			break;
 488:	08 95       	ret
		case 2+48:
			PORTD |= 0x8;
			break;
		
		case 3+48:
			PORTD |= 0x10;
 48a:	5c 9a       	sbi	0x0b, 4	; 11
			break;
 48c:	08 95       	ret

0000048e <CloseGate>:
}

//This function work
void CloseGate(uint8_t gateNumber)
{
	switch(gateNumber)
 48e:	83 33       	cpi	r24, 0x33	; 51
 490:	d9 f0       	breq	.+54     	; 0x4c8 <CloseGate+0x3a>
 492:	84 33       	cpi	r24, 0x34	; 52
 494:	30 f0       	brcs	.+12     	; 0x4a2 <CloseGate+0x14>
 496:	85 33       	cpi	r24, 0x35	; 53
 498:	a9 f0       	breq	.+42     	; 0x4c4 <CloseGate+0x36>
 49a:	85 33       	cpi	r24, 0x35	; 53
 49c:	58 f4       	brcc	.+22     	; 0x4b4 <CloseGate+0x26>
		case 3+48:
			PORTD &= 0xEF;
			break;
		
		case 4+48:
			PORTD &= 0xDF;
 49e:	5d 98       	cbi	0x0b, 5	; 11
			break;
 4a0:	08 95       	ret
}

//This function work
void CloseGate(uint8_t gateNumber)
{
	switch(gateNumber)
 4a2:	81 33       	cpi	r24, 0x31	; 49
 4a4:	69 f0       	breq	.+26     	; 0x4c0 <CloseGate+0x32>
 4a6:	82 33       	cpi	r24, 0x32	; 50
 4a8:	49 f0       	breq	.+18     	; 0x4bc <CloseGate+0x2e>
		case 6+48:
			PORTD &= 0x7F;
			break;
		
		default:
			USART_transmit_string("Error: Wrong gate number\n");
 4aa:	83 e5       	ldi	r24, 0x53	; 83
 4ac:	91 e0       	ldi	r25, 0x01	; 1
 4ae:	0e 94 f4 00 	call	0x1e8	; 0x1e8 <USART_transmit_string>
 4b2:	08 95       	ret
}

//This function work
void CloseGate(uint8_t gateNumber)
{
	switch(gateNumber)
 4b4:	86 33       	cpi	r24, 0x36	; 54
 4b6:	c9 f7       	brne	.-14     	; 0x4aa <CloseGate+0x1c>
		case 5+48:
			PORTD &= 0xBF;
			break;
			
		case 6+48:
			PORTD &= 0x7F;
 4b8:	5f 98       	cbi	0x0b, 7	; 11
			break;
 4ba:	08 95       	ret
		case 1+48:
			PORTD &= 0xFB;
			break;
		
		case 2+48:
			PORTD &= 0xF7;
 4bc:	5b 98       	cbi	0x0b, 3	; 11
			break;
 4be:	08 95       	ret
void CloseGate(uint8_t gateNumber)
{
	switch(gateNumber)
	{
		case 1+48:
			PORTD &= 0xFB;
 4c0:	5a 98       	cbi	0x0b, 2	; 11
			break;
 4c2:	08 95       	ret
		case 4+48:
			PORTD &= 0xDF;
			break;
		
		case 5+48:
			PORTD &= 0xBF;
 4c4:	5e 98       	cbi	0x0b, 6	; 11
			break;
 4c6:	08 95       	ret
		case 2+48:
			PORTD &= 0xF7;
			break;
		
		case 3+48:
			PORTD &= 0xEF;
 4c8:	5c 98       	cbi	0x0b, 4	; 11
			break;
 4ca:	08 95       	ret

000004cc <TurnsHandler>:
	else
		USART_transmit_string("Error: wrong command number\n");
}

void TurnsHandler(uint8_t* channels, uint8_t argument)
{
 4cc:	1f 93       	push	r17
 4ce:	cf 93       	push	r28
 4d0:	df 93       	push	r29
 4d2:	ec 01       	movw	r28, r24
	uint8_t i = 0;
	if(argument == 1 + 48)
 4d4:	61 33       	cpi	r22, 0x31	; 49
 4d6:	01 f1       	breq	.+64     	; 0x518 <TurnsHandler+0x4c>
			OpenGate(channels[i] + 48);
			i++;
		}
	}
	
	else if(argument == 0 + 48)
 4d8:	60 33       	cpi	r22, 0x30	; 48
 4da:	79 f0       	breq	.+30     	; 0x4fa <TurnsHandler+0x2e>
			i++;
		}
	}
	
	else
		USART_transmit_string("Error: wrong argument\n");
 4dc:	8d e6       	ldi	r24, 0x6D	; 109
 4de:	91 e0       	ldi	r25, 0x01	; 1
 4e0:	0e 94 f4 00 	call	0x1e8	; 0x1e8 <USART_transmit_string>

//This function work
void USART_transmit(uint8_t transmitedData)
{

    while (!(UCSR0A & (1 << UDRE0)));
 4e4:	80 91 c0 00 	lds	r24, 0x00C0
 4e8:	85 ff       	sbrs	r24, 5
 4ea:	fc cf       	rjmp	.-8      	; 0x4e4 <TurnsHandler+0x18>
    UDR0 = transmitedData;
 4ec:	81 e0       	ldi	r24, 0x01	; 1
 4ee:	80 93 c6 00 	sts	0x00C6, r24
	
	else
		USART_transmit_string("Error: wrong argument\n");
	
	USART_transmit(1); //This mean thats all is ok
}
 4f2:	df 91       	pop	r29
 4f4:	cf 91       	pop	r28
 4f6:	1f 91       	pop	r17
 4f8:	08 95       	ret
		}
	}
	
	else if(argument == 0 + 48)
	{
		while(channels[i] != 0)
 4fa:	88 81       	ld	r24, Y
 4fc:	88 23       	and	r24, r24
 4fe:	91 f3       	breq	.-28     	; 0x4e4 <TurnsHandler+0x18>
 500:	10 e0       	ldi	r17, 0x00	; 0
		{
			CloseGate(channels[i] + 48);
 502:	80 5d       	subi	r24, 0xD0	; 208
 504:	0e 94 47 02 	call	0x48e	; 0x48e <CloseGate>
			i++;
 508:	1f 5f       	subi	r17, 0xFF	; 255
		}
	}
	
	else if(argument == 0 + 48)
	{
		while(channels[i] != 0)
 50a:	fe 01       	movw	r30, r28
 50c:	e1 0f       	add	r30, r17
 50e:	f1 1d       	adc	r31, r1
 510:	80 81       	ld	r24, Z
 512:	88 23       	and	r24, r24
 514:	b1 f7       	brne	.-20     	; 0x502 <TurnsHandler+0x36>
 516:	e6 cf       	rjmp	.-52     	; 0x4e4 <TurnsHandler+0x18>
void TurnsHandler(uint8_t* channels, uint8_t argument)
{
	uint8_t i = 0;
	if(argument == 1 + 48)
	{
		while(channels[i] != 0)
 518:	88 81       	ld	r24, Y
 51a:	88 23       	and	r24, r24
 51c:	19 f3       	breq	.-58     	; 0x4e4 <TurnsHandler+0x18>
 51e:	10 e0       	ldi	r17, 0x00	; 0
		{
			OpenGate(channels[i] + 48);
 520:	80 5d       	subi	r24, 0xD0	; 208
 522:	0e 94 28 02 	call	0x450	; 0x450 <OpenGate>
			i++;
 526:	1f 5f       	subi	r17, 0xFF	; 255
void TurnsHandler(uint8_t* channels, uint8_t argument)
{
	uint8_t i = 0;
	if(argument == 1 + 48)
	{
		while(channels[i] != 0)
 528:	fe 01       	movw	r30, r28
 52a:	e1 0f       	add	r30, r17
 52c:	f1 1d       	adc	r31, r1
 52e:	80 81       	ld	r24, Z
 530:	88 23       	and	r24, r24
 532:	b1 f7       	brne	.-20     	; 0x520 <TurnsHandler+0x54>
 534:	d7 cf       	rjmp	.-82     	; 0x4e4 <TurnsHandler+0x18>

00000536 <CheckSensor>:
	}
}

/*uint16_t*/ uint8_t CheckSensor()
{
	ADCSRA |= (1 << ADSC);
 536:	80 91 7a 00 	lds	r24, 0x007A
 53a:	80 64       	ori	r24, 0x40	; 64
 53c:	80 93 7a 00 	sts	0x007A, r24
	//uint8_t temp;
	
	//Wait conversion
	
	//while(ADCSRA & (1<<ADSC));
	while(!(ADCSRA & (1 << ADIF)));
 540:	80 91 7a 00 	lds	r24, 0x007A
 544:	84 ff       	sbrs	r24, 4
 546:	fc cf       	rjmp	.-8      	; 0x540 <CheckSensor+0xa>
			
	uint8_t _zero = 0 + 48;
	uint8_t _one = 1 + 48;
	
	
	if(ADCH >= 2)
 548:	80 91 79 00 	lds	r24, 0x0079
 54c:	82 30       	cpi	r24, 0x02	; 2
 54e:	10 f0       	brcs	.+4      	; 0x554 <CheckSensor+0x1e>
		return _zero;
 550:	80 e3       	ldi	r24, 0x30	; 48
 552:	08 95       	ret
	else
		return _one;
 554:	81 e3       	ldi	r24, 0x31	; 49
	ADCResult = ADCH;
	ADCResult << 8;
	ADCResult |= ADCL;

	return ADCResult;*/
}
 556:	08 95       	ret

00000558 <StateHandlerOld>:
uint8_t ADCData = 0;
uint8_t ADCDataH = 0;
uint8_t ADCDataL = 0;

void StateHandlerOld()
{
 558:	1f 93       	push	r17
 55a:	cf 93       	push	r28
 55c:	df 93       	push	r29
}

//This function work
uint8_t USART_Receive()
{
	UCSR0A &= 0x7F;
 55e:	80 91 c0 00 	lds	r24, 0x00C0
 562:	8f 77       	andi	r24, 0x7F	; 127
 564:	80 93 c0 00 	sts	0x00C0, r24
	
    while(!(UCSR0A & (1 << RXC0)))
 568:	80 91 c0 00 	lds	r24, 0x00C0
 56c:	87 fd       	sbrc	r24, 7
 56e:	08 c0       	rjmp	.+16     	; 0x580 <StateHandlerOld+0x28>
 570:	c3 e5       	ldi	r28, 0x53	; 83
 572:	d0 e0       	ldi	r29, 0x00	; 0
	{
		CheckSensorAsync();
 574:	fe 01       	movw	r30, r28
 576:	09 95       	icall
//This function work
uint8_t USART_Receive()
{
	UCSR0A &= 0x7F;
	
    while(!(UCSR0A & (1 << RXC0)))
 578:	80 91 c0 00 	lds	r24, 0x00C0
 57c:	87 ff       	sbrs	r24, 7
 57e:	fa cf       	rjmp	.-12     	; 0x574 <StateHandlerOld+0x1c>
	{
		CheckSensorAsync();
		//_delay_ms(500);
	}
	
    return UDR0;
 580:	10 91 c6 00 	lds	r17, 0x00C6
		USART_Receive();
		USART_Receive();
	#endif
	
	#ifdef DEBUG
		USART_transmit_string("\nState Handler\n\n");
 584:	84 e8       	ldi	r24, 0x84	; 132
 586:	91 e0       	ldi	r25, 0x01	; 1
 588:	0e 94 f4 00 	call	0x1e8	; 0x1e8 <USART_transmit_string>
		
		USART_transmit_string("Channel number = ");
 58c:	85 e9       	ldi	r24, 0x95	; 149
 58e:	91 e0       	ldi	r25, 0x01	; 1
 590:	0e 94 f4 00 	call	0x1e8	; 0x1e8 <USART_transmit_string>

//This function work
void USART_transmit(uint8_t transmitedData)
{

    while (!(UCSR0A & (1 << UDRE0)));
 594:	80 91 c0 00 	lds	r24, 0x00C0
 598:	85 ff       	sbrs	r24, 5
 59a:	fc cf       	rjmp	.-8      	; 0x594 <StateHandlerOld+0x3c>
    UDR0 = transmitedData;
 59c:	10 93 c6 00 	sts	0x00C6, r17

//This function work
void USART_transmit(uint8_t transmitedData)
{

    while (!(UCSR0A & (1 << UDRE0)));
 5a0:	80 91 c0 00 	lds	r24, 0x00C0
 5a4:	85 ff       	sbrs	r24, 5
 5a6:	fc cf       	rjmp	.-8      	; 0x5a0 <StateHandlerOld+0x48>
    UDR0 = transmitedData;
 5a8:	8a e0       	ldi	r24, 0x0A	; 10
 5aa:	80 93 c6 00 	sts	0x00C6, r24
		USART_transmit('\n');
	#endif
	
	uint8_t stateOfChannel = 0;
	
	switch(channelNumber)
 5ae:	13 33       	cpi	r17, 0x33	; 51
 5b0:	09 f4       	brne	.+2      	; 0x5b4 <StateHandlerOld+0x5c>
 5b2:	73 c0       	rjmp	.+230    	; 0x69a <StateHandlerOld+0x142>
 5b4:	14 33       	cpi	r17, 0x34	; 52
 5b6:	f0 f0       	brcs	.+60     	; 0x5f4 <StateHandlerOld+0x9c>
 5b8:	15 33       	cpi	r17, 0x35	; 53
 5ba:	09 f4       	brne	.+2      	; 0x5be <StateHandlerOld+0x66>
 5bc:	60 c0       	rjmp	.+192    	; 0x67e <StateHandlerOld+0x126>
 5be:	15 33       	cpi	r17, 0x35	; 53
 5c0:	28 f5       	brcc	.+74     	; 0x60c <StateHandlerOld+0xb4>
			stateOfChannel = ((PORTD & 16) >> 4) + 48;
			
			break;
			
		case 4+48:
			stateOfChannel = ((PORTD & 32) >> 5) + 48;
 5c2:	8b b1       	in	r24, 0x0b	; 11
 5c4:	90 e0       	ldi	r25, 0x00	; 0
 5c6:	80 72       	andi	r24, 0x20	; 32
 5c8:	90 70       	andi	r25, 0x00	; 0
 5ca:	95 95       	asr	r25
 5cc:	87 95       	ror	r24
 5ce:	95 95       	asr	r25
 5d0:	87 95       	ror	r24
 5d2:	95 95       	asr	r25
 5d4:	87 95       	ror	r24
 5d6:	95 95       	asr	r25
 5d8:	87 95       	ror	r24
 5da:	95 95       	asr	r25
 5dc:	87 95       	ror	r24
 5de:	80 5d       	subi	r24, 0xD0	; 208

//This function work
void USART_transmit(uint8_t transmitedData)
{

    while (!(UCSR0A & (1 << UDRE0)));
 5e0:	90 91 c0 00 	lds	r25, 0x00C0
 5e4:	95 ff       	sbrs	r25, 5
 5e6:	fc cf       	rjmp	.-8      	; 0x5e0 <StateHandlerOld+0x88>
    UDR0 = transmitedData;
 5e8:	80 93 c6 00 	sts	0x00C6, r24
			return;
			break;
	}
	
	USART_transmit(stateOfChannel);
}
 5ec:	df 91       	pop	r29
 5ee:	cf 91       	pop	r28
 5f0:	1f 91       	pop	r17
 5f2:	08 95       	ret
		USART_transmit('\n');
	#endif
	
	uint8_t stateOfChannel = 0;
	
	switch(channelNumber)
 5f4:	11 33       	cpi	r17, 0x31	; 49
 5f6:	c9 f1       	breq	.+114    	; 0x66a <StateHandlerOld+0x112>
 5f8:	12 33       	cpi	r17, 0x32	; 50
 5fa:	59 f1       	breq	.+86     	; 0x652 <StateHandlerOld+0xfa>
			return;
			
			break;
			
		default:
			USART_transmit_string("Error: wrong channel number\n");
 5fc:	84 e2       	ldi	r24, 0x24	; 36
 5fe:	91 e0       	ldi	r25, 0x01	; 1
 600:	0e 94 f4 00 	call	0x1e8	; 0x1e8 <USART_transmit_string>
			return;
			break;
	}
	
	USART_transmit(stateOfChannel);
}
 604:	df 91       	pop	r29
 606:	cf 91       	pop	r28
 608:	1f 91       	pop	r17
 60a:	08 95       	ret
		USART_transmit('\n');
	#endif
	
	uint8_t stateOfChannel = 0;
	
	switch(channelNumber)
 60c:	16 33       	cpi	r17, 0x36	; 54
 60e:	b1 f7       	brne	.-20     	; 0x5fc <StateHandlerOld+0xa4>
	}
}

/*uint16_t*/ uint8_t CheckSensor()
{
	ADCSRA |= (1 << ADSC);
 610:	80 91 7a 00 	lds	r24, 0x007A
 614:	80 64       	ori	r24, 0x40	; 64
 616:	80 93 7a 00 	sts	0x007A, r24
	//uint8_t temp;
	
	//Wait conversion
	
	//while(ADCSRA & (1<<ADSC));
	while(!(ADCSRA & (1 << ADIF)));
 61a:	80 91 7a 00 	lds	r24, 0x007A
 61e:	84 ff       	sbrs	r24, 4
 620:	fc cf       	rjmp	.-8      	; 0x61a <StateHandlerOld+0xc2>
			
	uint8_t _zero = 0 + 48;
	uint8_t _one = 1 + 48;
	
	
	if(ADCH >= 2)
 622:	80 91 79 00 	lds	r24, 0x0079
 626:	82 30       	cpi	r24, 0x02	; 2
 628:	08 f4       	brcc	.+2      	; 0x62c <StateHandlerOld+0xd4>
 62a:	45 c0       	rjmp	.+138    	; 0x6b6 <StateHandlerOld+0x15e>
		return _zero;
 62c:	80 e3       	ldi	r24, 0x30	; 48
			
			break;
		
		//ADC
		case 6+48:
			ADCData = CheckSensor();
 62e:	80 93 2e 02 	sts	0x022E, r24

			//ADCDataL = (uint8_t)ADCData;
			//ADCDataH = (uint8_t)(ADCData >> 8);
			#ifdef DEBUG
				USART_transmit_string("ADC = ");
 632:	8d e1       	ldi	r24, 0x1D	; 29
 634:	91 e0       	ldi	r25, 0x01	; 1
 636:	0e 94 f4 00 	call	0x1e8	; 0x1e8 <USART_transmit_string>
			#endif
			USART_transmit(ADCData);
 63a:	90 91 2e 02 	lds	r25, 0x022E

//This function work
void USART_transmit(uint8_t transmitedData)
{

    while (!(UCSR0A & (1 << UDRE0)));
 63e:	80 91 c0 00 	lds	r24, 0x00C0
 642:	85 ff       	sbrs	r24, 5
 644:	fc cf       	rjmp	.-8      	; 0x63e <StateHandlerOld+0xe6>
    UDR0 = transmitedData;
 646:	90 93 c6 00 	sts	0x00C6, r25
			return;
			break;
	}
	
	USART_transmit(stateOfChannel);
}
 64a:	df 91       	pop	r29
 64c:	cf 91       	pop	r28
 64e:	1f 91       	pop	r17
 650:	08 95       	ret
			stateOfChannel = ((PORTD & 4) >> 2) + 48;
			
			break;
			
		case 2+48:
			stateOfChannel = ((PORTD & 8) >> 3) + 48;
 652:	8b b1       	in	r24, 0x0b	; 11
 654:	90 e0       	ldi	r25, 0x00	; 0
 656:	88 70       	andi	r24, 0x08	; 8
 658:	90 70       	andi	r25, 0x00	; 0
 65a:	95 95       	asr	r25
 65c:	87 95       	ror	r24
 65e:	95 95       	asr	r25
 660:	87 95       	ror	r24
 662:	95 95       	asr	r25
 664:	87 95       	ror	r24
 666:	80 5d       	subi	r24, 0xD0	; 208
			
			break;
 668:	bb cf       	rjmp	.-138    	; 0x5e0 <StateHandlerOld+0x88>
	uint8_t stateOfChannel = 0;
	
	switch(channelNumber)
	{
		case 1+48:
			stateOfChannel = ((PORTD & 4) >> 2) + 48;
 66a:	8b b1       	in	r24, 0x0b	; 11
 66c:	90 e0       	ldi	r25, 0x00	; 0
 66e:	84 70       	andi	r24, 0x04	; 4
 670:	90 70       	andi	r25, 0x00	; 0
 672:	95 95       	asr	r25
 674:	87 95       	ror	r24
 676:	95 95       	asr	r25
 678:	87 95       	ror	r24
 67a:	80 5d       	subi	r24, 0xD0	; 208
			
			break;
 67c:	b1 cf       	rjmp	.-158    	; 0x5e0 <StateHandlerOld+0x88>
			stateOfChannel = ((PORTD & 32) >> 5) + 48;
			
			break;
		
		case 5+48:
			stateOfChannel = ((PORTD & 64) >> 6) + 48;
 67e:	8b b1       	in	r24, 0x0b	; 11
 680:	90 e0       	ldi	r25, 0x00	; 0
 682:	80 74       	andi	r24, 0x40	; 64
 684:	90 70       	andi	r25, 0x00	; 0
 686:	08 2e       	mov	r0, r24
 688:	89 2f       	mov	r24, r25
 68a:	00 0c       	add	r0, r0
 68c:	88 1f       	adc	r24, r24
 68e:	99 0b       	sbc	r25, r25
 690:	00 0c       	add	r0, r0
 692:	88 1f       	adc	r24, r24
 694:	99 1f       	adc	r25, r25
 696:	80 5d       	subi	r24, 0xD0	; 208
 698:	a3 cf       	rjmp	.-186    	; 0x5e0 <StateHandlerOld+0x88>
			stateOfChannel = ((PORTD & 8) >> 3) + 48;
			
			break;
			
		case 3+48:
			stateOfChannel = ((PORTD & 16) >> 4) + 48;
 69a:	8b b1       	in	r24, 0x0b	; 11
 69c:	90 e0       	ldi	r25, 0x00	; 0
 69e:	80 71       	andi	r24, 0x10	; 16
 6a0:	90 70       	andi	r25, 0x00	; 0
 6a2:	95 95       	asr	r25
 6a4:	87 95       	ror	r24
 6a6:	95 95       	asr	r25
 6a8:	87 95       	ror	r24
 6aa:	95 95       	asr	r25
 6ac:	87 95       	ror	r24
 6ae:	95 95       	asr	r25
 6b0:	87 95       	ror	r24
 6b2:	80 5d       	subi	r24, 0xD0	; 208
			
			break;
 6b4:	95 cf       	rjmp	.-214    	; 0x5e0 <StateHandlerOld+0x88>
	
	
	if(ADCH >= 2)
		return _zero;
	else
		return _one;
 6b6:	81 e3       	ldi	r24, 0x31	; 49
 6b8:	ba cf       	rjmp	.-140    	; 0x62e <StateHandlerOld+0xd6>

000006ba <TurnsHandlerOld>:
	
	USART_transmit(stateOfChannel);
}

void TurnsHandlerOld()
{	
 6ba:	0f 93       	push	r16
 6bc:	1f 93       	push	r17
 6be:	cf 93       	push	r28
 6c0:	df 93       	push	r29
}

//This function work
uint8_t USART_Receive()
{
	UCSR0A &= 0x7F;
 6c2:	80 91 c0 00 	lds	r24, 0x00C0
 6c6:	8f 77       	andi	r24, 0x7F	; 127
 6c8:	80 93 c0 00 	sts	0x00C0, r24
	
    while(!(UCSR0A & (1 << RXC0)))
 6cc:	80 91 c0 00 	lds	r24, 0x00C0
 6d0:	87 fd       	sbrc	r24, 7
 6d2:	08 c0       	rjmp	.+16     	; 0x6e4 <TurnsHandlerOld+0x2a>
 6d4:	c3 e5       	ldi	r28, 0x53	; 83
 6d6:	d0 e0       	ldi	r29, 0x00	; 0
	{
		CheckSensorAsync();
 6d8:	fe 01       	movw	r30, r28
 6da:	09 95       	icall
//This function work
uint8_t USART_Receive()
{
	UCSR0A &= 0x7F;
	
    while(!(UCSR0A & (1 << RXC0)))
 6dc:	80 91 c0 00 	lds	r24, 0x00C0
 6e0:	87 ff       	sbrs	r24, 7
 6e2:	fa cf       	rjmp	.-12     	; 0x6d8 <TurnsHandlerOld+0x1e>
	{
		CheckSensorAsync();
		//_delay_ms(500);
	}
	
    return UDR0;
 6e4:	00 91 c6 00 	lds	r16, 0x00C6
void TurnsHandlerOld()
{	
	uint8_t channelNumber = USART_Receive();
	
	#ifdef DEBUG
		USART_transmit_string("\nTurns Handler\n\n");
 6e8:	87 ea       	ldi	r24, 0xA7	; 167
 6ea:	91 e0       	ldi	r25, 0x01	; 1
 6ec:	0e 94 f4 00 	call	0x1e8	; 0x1e8 <USART_transmit_string>
		USART_transmit_string("Channel number = ");
 6f0:	85 e9       	ldi	r24, 0x95	; 149
 6f2:	91 e0       	ldi	r25, 0x01	; 1
 6f4:	0e 94 f4 00 	call	0x1e8	; 0x1e8 <USART_transmit_string>

//This function work
void USART_transmit(uint8_t transmitedData)
{

    while (!(UCSR0A & (1 << UDRE0)));
 6f8:	80 91 c0 00 	lds	r24, 0x00C0
 6fc:	85 ff       	sbrs	r24, 5
 6fe:	fc cf       	rjmp	.-8      	; 0x6f8 <TurnsHandlerOld+0x3e>
    UDR0 = transmitedData;
 700:	00 93 c6 00 	sts	0x00C6, r16

//This function work
void USART_transmit(uint8_t transmitedData)
{

    while (!(UCSR0A & (1 << UDRE0)));
 704:	80 91 c0 00 	lds	r24, 0x00C0
 708:	85 ff       	sbrs	r24, 5
 70a:	fc cf       	rjmp	.-8      	; 0x704 <TurnsHandlerOld+0x4a>
    UDR0 = transmitedData;
 70c:	8a e0       	ldi	r24, 0x0A	; 10
 70e:	80 93 c6 00 	sts	0x00C6, r24
}

//This function work
uint8_t USART_Receive()
{
	UCSR0A &= 0x7F;
 712:	80 91 c0 00 	lds	r24, 0x00C0
 716:	8f 77       	andi	r24, 0x7F	; 127
 718:	80 93 c0 00 	sts	0x00C0, r24
	
    while(!(UCSR0A & (1 << RXC0)))
 71c:	80 91 c0 00 	lds	r24, 0x00C0
 720:	87 fd       	sbrc	r24, 7
 722:	08 c0       	rjmp	.+16     	; 0x734 <TurnsHandlerOld+0x7a>
 724:	c3 e5       	ldi	r28, 0x53	; 83
 726:	d0 e0       	ldi	r29, 0x00	; 0
	{
		CheckSensorAsync();
 728:	fe 01       	movw	r30, r28
 72a:	09 95       	icall
//This function work
uint8_t USART_Receive()
{
	UCSR0A &= 0x7F;
	
    while(!(UCSR0A & (1 << RXC0)))
 72c:	80 91 c0 00 	lds	r24, 0x00C0
 730:	87 ff       	sbrs	r24, 7
 732:	fa cf       	rjmp	.-12     	; 0x728 <TurnsHandlerOld+0x6e>
	{
		CheckSensorAsync();
		//_delay_ms(500);
	}
	
    return UDR0;
 734:	10 91 c6 00 	lds	r17, 0x00C6
	#endif
	
	uint8_t onOff = USART_Receive();
	
	#ifdef DEBUG
		USART_transmit_string("Switch to on or off = ");
 738:	88 eb       	ldi	r24, 0xB8	; 184
 73a:	91 e0       	ldi	r25, 0x01	; 1
 73c:	0e 94 f4 00 	call	0x1e8	; 0x1e8 <USART_transmit_string>

//This function work
void USART_transmit(uint8_t transmitedData)
{

    while (!(UCSR0A & (1 << UDRE0)));
 740:	80 91 c0 00 	lds	r24, 0x00C0
 744:	85 ff       	sbrs	r24, 5
 746:	fc cf       	rjmp	.-8      	; 0x740 <TurnsHandlerOld+0x86>
    UDR0 = transmitedData;
 748:	10 93 c6 00 	sts	0x00C6, r17

//This function work
void USART_transmit(uint8_t transmitedData)
{

    while (!(UCSR0A & (1 << UDRE0)));
 74c:	80 91 c0 00 	lds	r24, 0x00C0
 750:	85 ff       	sbrs	r24, 5
 752:	fc cf       	rjmp	.-8      	; 0x74c <TurnsHandlerOld+0x92>
    UDR0 = transmitedData;
 754:	8a e0       	ldi	r24, 0x0A	; 10
 756:	80 93 c6 00 	sts	0x00C6, r24
	#ifdef WINDOWS
		USART_Receive();
		USART_Receive();
	#endif

	if(onOff == 1+48) //On
 75a:	11 33       	cpi	r17, 0x31	; 49
 75c:	99 f0       	breq	.+38     	; 0x784 <TurnsHandlerOld+0xca>
		OpenGate(channelNumber);
	
	else if (onOff == 0+48) //Off
 75e:	10 33       	cpi	r17, 0x30	; 48
 760:	49 f0       	breq	.+18     	; 0x774 <TurnsHandlerOld+0xba>
		CloseGate(channelNumber);
	
	else USART_transmit_string("Error: Wrong argument\n");
 762:	8f ec       	ldi	r24, 0xCF	; 207
 764:	91 e0       	ldi	r25, 0x01	; 1
 766:	0e 94 f4 00 	call	0x1e8	; 0x1e8 <USART_transmit_string>
	
}
 76a:	df 91       	pop	r29
 76c:	cf 91       	pop	r28
 76e:	1f 91       	pop	r17
 770:	0f 91       	pop	r16
 772:	08 95       	ret

	if(onOff == 1+48) //On
		OpenGate(channelNumber);
	
	else if (onOff == 0+48) //Off
		CloseGate(channelNumber);
 774:	80 2f       	mov	r24, r16
 776:	0e 94 47 02 	call	0x48e	; 0x48e <CloseGate>
	
	else USART_transmit_string("Error: Wrong argument\n");
	
}
 77a:	df 91       	pop	r29
 77c:	cf 91       	pop	r28
 77e:	1f 91       	pop	r17
 780:	0f 91       	pop	r16
 782:	08 95       	ret
		USART_Receive();
		USART_Receive();
	#endif

	if(onOff == 1+48) //On
		OpenGate(channelNumber);
 784:	80 2f       	mov	r24, r16
 786:	0e 94 28 02 	call	0x450	; 0x450 <OpenGate>
 78a:	ef cf       	rjmp	.-34     	; 0x76a <TurnsHandlerOld+0xb0>

0000078c <CheckUSBForCommand>:
	
}

//Work
void CheckUSBForCommand()
{
 78c:	7f 92       	push	r7
 78e:	8f 92       	push	r8
 790:	9f 92       	push	r9
 792:	af 92       	push	r10
 794:	bf 92       	push	r11
 796:	cf 92       	push	r12
 798:	df 92       	push	r13
 79a:	ef 92       	push	r14
 79c:	ff 92       	push	r15
 79e:	0f 93       	push	r16
 7a0:	1f 93       	push	r17
 7a2:	df 93       	push	r29
 7a4:	cf 93       	push	r28
 7a6:	cd b7       	in	r28, 0x3d	; 61
 7a8:	de b7       	in	r29, 0x3e	; 62
 7aa:	65 97       	sbiw	r28, 0x15	; 21
 7ac:	0f b6       	in	r0, 0x3f	; 63
 7ae:	f8 94       	cli
 7b0:	de bf       	out	0x3e, r29	; 62
 7b2:	0f be       	out	0x3f, r0	; 63
 7b4:	cd bf       	out	0x3d, r28	; 61
		else USART_transmit_string("Error: Wrong command\n");
	
	#endif
	
	#ifndef OLD_COMMAND_STRUCTURE
		char* commandStr = USART_Receive_String();
 7b6:	0e 94 c4 01 	call	0x388	; 0x388 <USART_Receive_String>
 7ba:	b8 2e       	mov	r11, r24
 7bc:	09 2f       	mov	r16, r25
		
		#ifdef DEBUG
			USART_transmit_string("Command = ");
 7be:	86 ee       	ldi	r24, 0xE6	; 230
 7c0:	91 e0       	ldi	r25, 0x01	; 1
 7c2:	0e 94 f4 00 	call	0x1e8	; 0x1e8 <USART_transmit_string>
			USART_transmit_string(commandStr);
 7c6:	8b 2d       	mov	r24, r11
 7c8:	90 2f       	mov	r25, r16
 7ca:	0e 94 f4 00 	call	0x1e8	; 0x1e8 <USART_transmit_string>

//This function work
void USART_transmit(uint8_t transmitedData)
{

    while (!(UCSR0A & (1 << UDRE0)));
 7ce:	80 91 c0 00 	lds	r24, 0x00C0
 7d2:	85 ff       	sbrs	r24, 5
 7d4:	fc cf       	rjmp	.-8      	; 0x7ce <CheckUSBForCommand+0x42>
    UDR0 = transmitedData;
 7d6:	8a e0       	ldi	r24, 0x0A	; 10
 7d8:	80 93 c6 00 	sts	0x00C6, r24
		// 0 - task selection (1 turn, 2 state)
		// 1 - channel selection
		// 2 - argument taking
		
		uint8_t task = 0;
		uint8_t channels[6] = {0};
 7dc:	6e 01       	movw	r12, r28
 7de:	08 94       	sec
 7e0:	c1 1c       	adc	r12, r1
 7e2:	d1 1c       	adc	r13, r1
 7e4:	86 e0       	ldi	r24, 0x06	; 6
 7e6:	f6 01       	movw	r30, r12
 7e8:	11 92       	st	Z+, r1
 7ea:	8a 95       	dec	r24
 7ec:	e9 f7       	brne	.-6      	; 0x7e8 <CheckUSBForCommand+0x5c>
		uint8_t argument = 0;
		
		char channelsStr[12] = {0};
 7ee:	97 e0       	ldi	r25, 0x07	; 7
 7f0:	e9 2e       	mov	r14, r25
 7f2:	f1 2c       	mov	r15, r1
 7f4:	ec 0e       	add	r14, r28
 7f6:	fd 1e       	adc	r15, r29
 7f8:	8c e0       	ldi	r24, 0x0C	; 12
 7fa:	f7 01       	movw	r30, r14
 7fc:	11 92       	st	Z+, r1
 7fe:	8a 95       	dec	r24
 800:	e9 f7       	brne	.-6      	; 0x7fc <CheckUSBForCommand+0x70>
 802:	80 2f       	mov	r24, r16
 804:	0b 2d       	mov	r16, r11
 806:	18 2f       	mov	r17, r24
		uint8_t j = 0;
		
		uint8_t checkingFinished = 0;
 808:	77 24       	eor	r7, r7
		uint8_t task = 0;
		uint8_t channels[6] = {0};
		uint8_t argument = 0;
		
		char channelsStr[12] = {0};
		uint8_t j = 0;
 80a:	88 24       	eor	r8, r8
		// 1 - channel selection
		// 2 - argument taking
		
		uint8_t task = 0;
		uint8_t channels[6] = {0};
		uint8_t argument = 0;
 80c:	bb 24       	eor	r11, r11
		//
		// 0 - task selection (1 turn, 2 state)
		// 1 - channel selection
		// 2 - argument taking
		
		uint8_t task = 0;
 80e:	aa 24       	eor	r10, r10
			USART_transmit('\n');
		#endif
		
		uint8_t i = 0;
		
		uint8_t stateSelection = 0;
 810:	40 e0       	ldi	r20, 0x00	; 0
		uint8_t checkingFinished = 0;
		//
		// 0 - Checking is continuing
		// 1 - Checking is finished
		
		for(i = 0; i < 20; i++)
 812:	30 e0       	ldi	r19, 0x00	; 0
//This function work
void USART_transmit(uint8_t transmitedData)
{

    while (!(UCSR0A & (1 << UDRE0)));
    UDR0 = transmitedData;
 814:	8a e0       	ldi	r24, 0x0A	; 10
 816:	98 2e       	mov	r9, r24
 818:	13 c0       	rjmp	.+38     	; 0x840 <CheckUSBForCommand+0xb4>
			{
				stateSelection++;
				continue;
			}
			
			switch(stateSelection)
 81a:	41 30       	cpi	r20, 0x01	; 1
 81c:	09 f4       	brne	.+2      	; 0x820 <CheckUSBForCommand+0x94>
 81e:	72 c0       	rjmp	.+228    	; 0x904 <__stack+0x5>
 820:	41 30       	cpi	r20, 0x01	; 1
 822:	90 f1       	brcs	.+100    	; 0x888 <CheckUSBForCommand+0xfc>
 824:	42 30       	cpi	r20, 0x02	; 2
 826:	09 f4       	brne	.+2      	; 0x82a <CheckUSBForCommand+0x9e>
 828:	4d c0       	rjmp	.+154    	; 0x8c4 <CheckUSBForCommand+0x138>
						USART_transmit('\n');
					#endif
					break;
					
				default:
					USART_transmit_string("Error: stateSelection > 2\n");
 82a:	85 e0       	ldi	r24, 0x05	; 5
 82c:	92 e0       	ldi	r25, 0x02	; 2
 82e:	3d 8b       	std	Y+21, r19	; 0x15
 830:	4c 8b       	std	Y+20, r20	; 0x14
 832:	0e 94 f4 00 	call	0x1e8	; 0x1e8 <USART_transmit_string>
 836:	4c 89       	ldd	r20, Y+20	; 0x14
 838:	3d 89       	ldd	r19, Y+21	; 0x15
		uint8_t checkingFinished = 0;
		//
		// 0 - Checking is continuing
		// 1 - Checking is finished
		
		for(i = 0; i < 20; i++)
 83a:	3f 5f       	subi	r19, 0xFF	; 255
 83c:	34 31       	cpi	r19, 0x14	; 20
 83e:	69 f0       	breq	.+26     	; 0x85a <CheckUSBForCommand+0xce>
		{
			
			if(commandStr[i] == '\0' || commandStr[i] < 32 || commandStr[i] > 126)
 840:	f8 01       	movw	r30, r16
 842:	21 91       	ld	r18, Z+
 844:	8f 01       	movw	r16, r30
 846:	82 2f       	mov	r24, r18
 848:	80 52       	subi	r24, 0x20	; 32
 84a:	8f 35       	cpi	r24, 0x5F	; 95
 84c:	30 f4       	brcc	.+12     	; 0x85a <CheckUSBForCommand+0xce>
				break;
			
			if(commandStr[i] == ',')
 84e:	2c 32       	cpi	r18, 0x2C	; 44
 850:	21 f7       	brne	.-56     	; 0x81a <CheckUSBForCommand+0x8e>
			{
				stateSelection++;
 852:	4f 5f       	subi	r20, 0xFF	; 255
		uint8_t checkingFinished = 0;
		//
		// 0 - Checking is continuing
		// 1 - Checking is finished
		
		for(i = 0; i < 20; i++)
 854:	3f 5f       	subi	r19, 0xFF	; 255
 856:	34 31       	cpi	r19, 0x14	; 20
 858:	99 f7       	brne	.-26     	; 0x840 <CheckUSBForCommand+0xb4>
					USART_transmit_string("Error: stateSelection > 2\n");
					break;
			}
		}
		
		if(checkingFinished)
 85a:	77 20       	and	r7, r7
 85c:	09 f0       	breq	.+2      	; 0x860 <CheckUSBForCommand+0xd4>
 85e:	58 c0       	rjmp	.+176    	; 0x910 <__stack+0x11>
		}
			
		
	#endif
		
}
 860:	65 96       	adiw	r28, 0x15	; 21
 862:	0f b6       	in	r0, 0x3f	; 63
 864:	f8 94       	cli
 866:	de bf       	out	0x3e, r29	; 62
 868:	0f be       	out	0x3f, r0	; 63
 86a:	cd bf       	out	0x3d, r28	; 61
 86c:	cf 91       	pop	r28
 86e:	df 91       	pop	r29
 870:	1f 91       	pop	r17
 872:	0f 91       	pop	r16
 874:	ff 90       	pop	r15
 876:	ef 90       	pop	r14
 878:	df 90       	pop	r13
 87a:	cf 90       	pop	r12
 87c:	bf 90       	pop	r11
 87e:	af 90       	pop	r10
 880:	9f 90       	pop	r9
 882:	8f 90       	pop	r8
 884:	7f 90       	pop	r7
 886:	08 95       	ret

//This function work
void USART_transmit(uint8_t transmitedData)
{

    while (!(UCSR0A & (1 << UDRE0)));
 888:	80 91 c0 00 	lds	r24, 0x00C0
 88c:	85 ff       	sbrs	r24, 5
 88e:	fc cf       	rjmp	.-8      	; 0x888 <CheckUSBForCommand+0xfc>
    UDR0 = transmitedData;
 890:	90 92 c6 00 	sts	0x00C6, r9
			{
				case 0:
					task = commandStr[i];
					#ifdef DEBUG
						USART_transmit('\n');
						USART_transmit_string("Task = ");
 894:	81 ef       	ldi	r24, 0xF1	; 241
 896:	91 e0       	ldi	r25, 0x01	; 1
 898:	2b 8b       	std	Y+19, r18	; 0x13
 89a:	3d 8b       	std	Y+21, r19	; 0x15
 89c:	4c 8b       	std	Y+20, r20	; 0x14
 89e:	0e 94 f4 00 	call	0x1e8	; 0x1e8 <USART_transmit_string>
 8a2:	4c 89       	ldd	r20, Y+20	; 0x14
 8a4:	3d 89       	ldd	r19, Y+21	; 0x15
 8a6:	2b 89       	ldd	r18, Y+19	; 0x13

//This function work
void USART_transmit(uint8_t transmitedData)
{

    while (!(UCSR0A & (1 << UDRE0)));
 8a8:	80 91 c0 00 	lds	r24, 0x00C0
 8ac:	85 ff       	sbrs	r24, 5
 8ae:	fc cf       	rjmp	.-8      	; 0x8a8 <CheckUSBForCommand+0x11c>
    UDR0 = transmitedData;
 8b0:	20 93 c6 00 	sts	0x00C6, r18

//This function work
void USART_transmit(uint8_t transmitedData)
{

    while (!(UCSR0A & (1 << UDRE0)));
 8b4:	80 91 c0 00 	lds	r24, 0x00C0
 8b8:	85 ff       	sbrs	r24, 5
 8ba:	fc cf       	rjmp	.-8      	; 0x8b4 <CheckUSBForCommand+0x128>
    UDR0 = transmitedData;
 8bc:	90 92 c6 00 	sts	0x00C6, r9
						USART_transmit('\n');
						USART_transmit_string("Task = ");
						USART_transmit(task);
						USART_transmit('\n');
					#endif
					break;
 8c0:	a2 2e       	mov	r10, r18
 8c2:	bb cf       	rjmp	.-138    	; 0x83a <CheckUSBForCommand+0xae>

//This function work
void USART_transmit(uint8_t transmitedData)
{

    while (!(UCSR0A & (1 << UDRE0)));
 8c4:	80 91 c0 00 	lds	r24, 0x00C0
 8c8:	85 ff       	sbrs	r24, 5
 8ca:	fc cf       	rjmp	.-8      	; 0x8c4 <CheckUSBForCommand+0x138>
    UDR0 = transmitedData;
 8cc:	90 92 c6 00 	sts	0x00C6, r9
				case 2:
					argument = commandStr[i];
					checkingFinished = 1;
					#ifdef DEBUG
						USART_transmit('\n');
						USART_transmit_string("Argument = ");
 8d0:	89 ef       	ldi	r24, 0xF9	; 249
 8d2:	91 e0       	ldi	r25, 0x01	; 1
 8d4:	2b 8b       	std	Y+19, r18	; 0x13
 8d6:	3d 8b       	std	Y+21, r19	; 0x15
 8d8:	4c 8b       	std	Y+20, r20	; 0x14
 8da:	0e 94 f4 00 	call	0x1e8	; 0x1e8 <USART_transmit_string>
 8de:	4c 89       	ldd	r20, Y+20	; 0x14
 8e0:	3d 89       	ldd	r19, Y+21	; 0x15
 8e2:	2b 89       	ldd	r18, Y+19	; 0x13

//This function work
void USART_transmit(uint8_t transmitedData)
{

    while (!(UCSR0A & (1 << UDRE0)));
 8e4:	80 91 c0 00 	lds	r24, 0x00C0
 8e8:	85 ff       	sbrs	r24, 5
 8ea:	fc cf       	rjmp	.-8      	; 0x8e4 <CheckUSBForCommand+0x158>
    UDR0 = transmitedData;
 8ec:	20 93 c6 00 	sts	0x00C6, r18

//This function work
void USART_transmit(uint8_t transmitedData)
{

    while (!(UCSR0A & (1 << UDRE0)));
 8f0:	80 91 c0 00 	lds	r24, 0x00C0
 8f4:	85 ff       	sbrs	r24, 5
 8f6:	fc cf       	rjmp	.-8      	; 0x8f0 <CheckUSBForCommand+0x164>
    UDR0 = transmitedData;
 8f8:	90 92 c6 00 	sts	0x00C6, r9
						USART_transmit('\n');
						USART_transmit_string("Argument = ");
						USART_transmit(argument);
						USART_transmit('\n');
					#endif
					break;
 8fc:	b2 2e       	mov	r11, r18
					
					break;
				
				case 2:
					argument = commandStr[i];
					checkingFinished = 1;
 8fe:	77 24       	eor	r7, r7
 900:	73 94       	inc	r7
						USART_transmit('\n');
						USART_transmit_string("Argument = ");
						USART_transmit(argument);
						USART_transmit('\n');
					#endif
					break;
 902:	9b cf       	rjmp	.-202    	; 0x83a <CheckUSBForCommand+0xae>
					#endif
					break;
				
				case 1:
					
					channelsStr[j] =  commandStr[i];
 904:	f7 01       	movw	r30, r14
 906:	e8 0d       	add	r30, r8
 908:	f1 1d       	adc	r31, r1
 90a:	20 83       	st	Z, r18
					j++;
 90c:	83 94       	inc	r8
						USART_transmit_string("channelsStr = ");
						USART_transmit_string((char*)channelsStr);
						USART_transmit('\n');
					#endif*/
					
					break;
 90e:	95 cf       	rjmp	.-214    	; 0x83a <CheckUSBForCommand+0xae>
			}
		}
		
		if(checkingFinished)
		{
			channelsStr[j + 1] = 'A';
 910:	fe 01       	movw	r30, r28
 912:	e8 0d       	add	r30, r8
 914:	f1 1d       	adc	r31, r1
 916:	81 e4       	ldi	r24, 0x41	; 65
 918:	80 87       	std	Z+8, r24	; 0x08
			
			GetChannels(channelsStr, channels);
 91a:	c7 01       	movw	r24, r14
 91c:	b6 01       	movw	r22, r12
 91e:	0e 94 70 00 	call	0xe0	; 0xe0 <GetChannels>

//This function work
void USART_transmit(uint8_t transmitedData)
{

    while (!(UCSR0A & (1 << UDRE0)));
 922:	80 91 c0 00 	lds	r24, 0x00C0
 926:	85 ff       	sbrs	r24, 5
 928:	fc cf       	rjmp	.-8      	; 0x922 <__stack+0x23>
    UDR0 = transmitedData;
 92a:	8a e0       	ldi	r24, 0x0A	; 10
 92c:	80 93 c6 00 	sts	0x00C6, r24
			
			GetChannels(channelsStr, channels);
			
			#ifdef DEBUG
				USART_transmit('\n');
				USART_transmit_string("Channels = ");
 930:	80 e2       	ldi	r24, 0x20	; 32
 932:	92 e0       	ldi	r25, 0x02	; 2
 934:	0e 94 f4 00 	call	0x1e8	; 0x1e8 <USART_transmit_string>
				USART_transmit(channels[0]+48);
 938:	99 81       	ldd	r25, Y+1	; 0x01
 93a:	90 5d       	subi	r25, 0xD0	; 208

//This function work
void USART_transmit(uint8_t transmitedData)
{

    while (!(UCSR0A & (1 << UDRE0)));
 93c:	80 91 c0 00 	lds	r24, 0x00C0
 940:	85 ff       	sbrs	r24, 5
 942:	fc cf       	rjmp	.-8      	; 0x93c <__stack+0x3d>
    UDR0 = transmitedData;
 944:	90 93 c6 00 	sts	0x00C6, r25

//This function work
void USART_transmit(uint8_t transmitedData)
{

    while (!(UCSR0A & (1 << UDRE0)));
 948:	80 91 c0 00 	lds	r24, 0x00C0
 94c:	85 ff       	sbrs	r24, 5
 94e:	fc cf       	rjmp	.-8      	; 0x948 <__stack+0x49>
    UDR0 = transmitedData;
 950:	80 e2       	ldi	r24, 0x20	; 32
 952:	80 93 c6 00 	sts	0x00C6, r24
			#ifdef DEBUG
				USART_transmit('\n');
				USART_transmit_string("Channels = ");
				USART_transmit(channels[0]+48);
				USART_transmit(' ');
				USART_transmit(channels[1]+48);
 956:	9a 81       	ldd	r25, Y+2	; 0x02
 958:	90 5d       	subi	r25, 0xD0	; 208

//This function work
void USART_transmit(uint8_t transmitedData)
{

    while (!(UCSR0A & (1 << UDRE0)));
 95a:	80 91 c0 00 	lds	r24, 0x00C0
 95e:	85 ff       	sbrs	r24, 5
 960:	fc cf       	rjmp	.-8      	; 0x95a <__stack+0x5b>
    UDR0 = transmitedData;
 962:	90 93 c6 00 	sts	0x00C6, r25

//This function work
void USART_transmit(uint8_t transmitedData)
{

    while (!(UCSR0A & (1 << UDRE0)));
 966:	80 91 c0 00 	lds	r24, 0x00C0
 96a:	85 ff       	sbrs	r24, 5
 96c:	fc cf       	rjmp	.-8      	; 0x966 <__stack+0x67>
    UDR0 = transmitedData;
 96e:	80 e2       	ldi	r24, 0x20	; 32
 970:	80 93 c6 00 	sts	0x00C6, r24
				USART_transmit_string("Channels = ");
				USART_transmit(channels[0]+48);
				USART_transmit(' ');
				USART_transmit(channels[1]+48);
				USART_transmit(' ');
				USART_transmit(channels[2]+48);
 974:	9b 81       	ldd	r25, Y+3	; 0x03
 976:	90 5d       	subi	r25, 0xD0	; 208

//This function work
void USART_transmit(uint8_t transmitedData)
{

    while (!(UCSR0A & (1 << UDRE0)));
 978:	80 91 c0 00 	lds	r24, 0x00C0
 97c:	85 ff       	sbrs	r24, 5
 97e:	fc cf       	rjmp	.-8      	; 0x978 <__stack+0x79>
    UDR0 = transmitedData;
 980:	90 93 c6 00 	sts	0x00C6, r25

//This function work
void USART_transmit(uint8_t transmitedData)
{

    while (!(UCSR0A & (1 << UDRE0)));
 984:	80 91 c0 00 	lds	r24, 0x00C0
 988:	85 ff       	sbrs	r24, 5
 98a:	fc cf       	rjmp	.-8      	; 0x984 <__stack+0x85>
    UDR0 = transmitedData;
 98c:	80 e2       	ldi	r24, 0x20	; 32
 98e:	80 93 c6 00 	sts	0x00C6, r24
				USART_transmit(' ');
				USART_transmit(channels[1]+48);
				USART_transmit(' ');
				USART_transmit(channels[2]+48);
				USART_transmit(' ');
				USART_transmit(channels[3]+48);
 992:	9c 81       	ldd	r25, Y+4	; 0x04
 994:	90 5d       	subi	r25, 0xD0	; 208

//This function work
void USART_transmit(uint8_t transmitedData)
{

    while (!(UCSR0A & (1 << UDRE0)));
 996:	80 91 c0 00 	lds	r24, 0x00C0
 99a:	85 ff       	sbrs	r24, 5
 99c:	fc cf       	rjmp	.-8      	; 0x996 <__stack+0x97>
    UDR0 = transmitedData;
 99e:	90 93 c6 00 	sts	0x00C6, r25

//This function work
void USART_transmit(uint8_t transmitedData)
{

    while (!(UCSR0A & (1 << UDRE0)));
 9a2:	80 91 c0 00 	lds	r24, 0x00C0
 9a6:	85 ff       	sbrs	r24, 5
 9a8:	fc cf       	rjmp	.-8      	; 0x9a2 <__stack+0xa3>
    UDR0 = transmitedData;
 9aa:	80 e2       	ldi	r24, 0x20	; 32
 9ac:	80 93 c6 00 	sts	0x00C6, r24
				USART_transmit(' ');
				USART_transmit(channels[2]+48);
				USART_transmit(' ');
				USART_transmit(channels[3]+48);
				USART_transmit(' ');
				USART_transmit(channels[4]+48);
 9b0:	9d 81       	ldd	r25, Y+5	; 0x05
 9b2:	90 5d       	subi	r25, 0xD0	; 208

//This function work
void USART_transmit(uint8_t transmitedData)
{

    while (!(UCSR0A & (1 << UDRE0)));
 9b4:	80 91 c0 00 	lds	r24, 0x00C0
 9b8:	85 ff       	sbrs	r24, 5
 9ba:	fc cf       	rjmp	.-8      	; 0x9b4 <__stack+0xb5>
    UDR0 = transmitedData;
 9bc:	90 93 c6 00 	sts	0x00C6, r25

//This function work
void USART_transmit(uint8_t transmitedData)
{

    while (!(UCSR0A & (1 << UDRE0)));
 9c0:	80 91 c0 00 	lds	r24, 0x00C0
 9c4:	85 ff       	sbrs	r24, 5
 9c6:	fc cf       	rjmp	.-8      	; 0x9c0 <__stack+0xc1>
    UDR0 = transmitedData;
 9c8:	80 e2       	ldi	r24, 0x20	; 32
 9ca:	80 93 c6 00 	sts	0x00C6, r24
				USART_transmit(' ');
				USART_transmit(channels[3]+48);
				USART_transmit(' ');
				USART_transmit(channels[4]+48);
				USART_transmit(' ');
				USART_transmit(channels[5]+48);
 9ce:	9e 81       	ldd	r25, Y+6	; 0x06
 9d0:	90 5d       	subi	r25, 0xD0	; 208

//This function work
void USART_transmit(uint8_t transmitedData)
{

    while (!(UCSR0A & (1 << UDRE0)));
 9d2:	80 91 c0 00 	lds	r24, 0x00C0
 9d6:	85 ff       	sbrs	r24, 5
 9d8:	fc cf       	rjmp	.-8      	; 0x9d2 <__stack+0xd3>
    UDR0 = transmitedData;
 9da:	90 93 c6 00 	sts	0x00C6, r25

//This function work
void USART_transmit(uint8_t transmitedData)
{

    while (!(UCSR0A & (1 << UDRE0)));
 9de:	80 91 c0 00 	lds	r24, 0x00C0
 9e2:	85 ff       	sbrs	r24, 5
 9e4:	fc cf       	rjmp	.-8      	; 0x9de <__stack+0xdf>
    UDR0 = transmitedData;
 9e6:	8a e0       	ldi	r24, 0x0A	; 10
 9e8:	80 93 c6 00 	sts	0x00C6, r24
				USART_transmit(' ');
				USART_transmit(channels[5]+48);
				USART_transmit('\n');
			#endif
			
			CommandHandler(task, channels, argument);
 9ec:	8a 2d       	mov	r24, r10
 9ee:	90 e0       	ldi	r25, 0x00	; 0
 9f0:	b6 01       	movw	r22, r12
 9f2:	4b 2d       	mov	r20, r11
 9f4:	50 e0       	ldi	r21, 0x00	; 0
 9f6:	0e 94 0b 01 	call	0x216	; 0x216 <CommandHandler>
 9fa:	32 cf       	rjmp	.-412    	; 0x860 <CheckUSBForCommand+0xd4>

000009fc <main>:



int main(void)
{
    cli();
 9fc:	f8 94       	cli


void USART_init( uint8_t UBBR_val )
{

    UBRR0H = (uint8_t) (UBBR_val >> 8);
 9fe:	10 92 c5 00 	sts	0x00C5, r1
    UBRR0L = (uint8_t) UBBR_val;
 a02:	81 e8       	ldi	r24, 0x81	; 129
 a04:	80 93 c4 00 	sts	0x00C4, r24
    UCSR0B = (1 << RXEN0) | (1 << TXEN0);
 a08:	88 e1       	ldi	r24, 0x18	; 24
 a0a:	80 93 c1 00 	sts	0x00C1, r24
    UCSR0C = (1 << USBS0) | (3 << UCSZ00);
 a0e:	8e e0       	ldi	r24, 0x0E	; 14
 a10:	80 93 c2 00 	sts	0x00C2, r24

void ADC_init ()
{
	//ADCSRA = (1 << ADEN) | (0 << ADPS2) | (0 << ADPS1) | (0 << ADPS0)/* | (1 << ADATE)*//* | (1 << ADIE)*/;
	//ADMUX = (1 << REFS0) | (1 << MUX2) | (1 << MUX1);
	ADCSRA |= (1 << ADEN) | (1 << ADPS1) | (1 << ADPS0);
 a14:	80 91 7a 00 	lds	r24, 0x007A
 a18:	83 68       	ori	r24, 0x83	; 131
 a1a:	80 93 7a 00 	sts	0x007A, r24
	ADMUX |= (0 << REFS1) | (1 << REFS0) | (0 << MUX0) | (1 << MUX1) | (1 << MUX2) | (0 << MUX3);
 a1e:	80 91 7c 00 	lds	r24, 0x007C
 a22:	86 64       	ori	r24, 0x46	; 70
 a24:	80 93 7c 00 	sts	0x007C, r24

    USART_init( UBBRValue );
    
	ADC_init();
	
	DDRD = 0x3F;
 a28:	8f e3       	ldi	r24, 0x3F	; 63
 a2a:	8a b9       	out	0x0a, r24	; 10
	PORTD &= 0x3;
 a2c:	8b b1       	in	r24, 0x0b	; 11
 a2e:	83 70       	andi	r24, 0x03	; 3
 a30:	8b b9       	out	0x0b, r24	; 11
	
    sei();
 a32:	78 94       	sei
	//char* str = USART_Receive_String();
	//USART_transmit_string(str);
	
    while (1)
    {
		CheckSensorAsync();
 a34:	0e 94 53 00 	call	0xa6	; 0xa6 <CheckSensorAsync>
		CheckUSBForCommand();
 a38:	0e 94 c6 03 	call	0x78c	; 0x78c <CheckUSBForCommand>
 a3c:	fb cf       	rjmp	.-10     	; 0xa34 <main+0x38>

00000a3e <_exit>:
 a3e:	f8 94       	cli

00000a40 <__stop_program>:
 a40:	ff cf       	rjmp	.-2      	; 0xa40 <__stop_program>
